{
  "contractName": "DogeBetsPredictionV1",
  "abi": [
    {
      "inputs": [
        {
          "internalType": "address",
          "name": "newOperatorAddress",
          "type": "address"
        },
        {
          "internalType": "string",
          "name": "newPriceSource",
          "type": "string"
        }
      ],
      "stateMutability": "nonpayable",
      "type": "constructor"
    },
    {
      "anonymous": false,
      "inputs": [
        {
          "indexed": true,
          "internalType": "address",
          "name": "sender",
          "type": "address"
        },
        {
          "indexed": true,
          "internalType": "uint256",
          "name": "epoch",
          "type": "uint256"
        },
        {
          "indexed": false,
          "internalType": "uint256",
          "name": "amount",
          "type": "uint256"
        }
      ],
      "name": "BetBear",
      "type": "event"
    },
    {
      "anonymous": false,
      "inputs": [
        {
          "indexed": true,
          "internalType": "address",
          "name": "sender",
          "type": "address"
        },
        {
          "indexed": true,
          "internalType": "uint256",
          "name": "epoch",
          "type": "uint256"
        },
        {
          "indexed": false,
          "internalType": "uint256",
          "name": "amount",
          "type": "uint256"
        }
      ],
      "name": "BetBull",
      "type": "event"
    },
    {
      "anonymous": false,
      "inputs": [
        {
          "indexed": false,
          "internalType": "uint256",
          "name": "roundBuffer",
          "type": "uint256"
        },
        {
          "indexed": false,
          "internalType": "uint256",
          "name": "roundInterval",
          "type": "uint256"
        }
      ],
      "name": "BufferAndIntervalSecondsUpdated",
      "type": "event"
    },
    {
      "anonymous": false,
      "inputs": [
        {
          "indexed": true,
          "internalType": "uint256",
          "name": "epoch",
          "type": "uint256"
        }
      ],
      "name": "CancelRound",
      "type": "event"
    },
    {
      "anonymous": false,
      "inputs": [
        {
          "indexed": true,
          "internalType": "address",
          "name": "sender",
          "type": "address"
        },
        {
          "indexed": true,
          "internalType": "uint256",
          "name": "epoch",
          "type": "uint256"
        },
        {
          "indexed": false,
          "internalType": "uint256",
          "name": "amount",
          "type": "uint256"
        }
      ],
      "name": "Claim",
      "type": "event"
    },
    {
      "anonymous": false,
      "inputs": [
        {
          "indexed": true,
          "internalType": "uint256",
          "name": "epoch",
          "type": "uint256"
        }
      ],
      "name": "ContractPaused",
      "type": "event"
    },
    {
      "anonymous": false,
      "inputs": [
        {
          "indexed": false,
          "internalType": "address",
          "name": "account",
          "type": "address"
        }
      ],
      "name": "ContractPaused",
      "type": "event"
    },
    {
      "anonymous": false,
      "inputs": [
        {
          "indexed": true,
          "internalType": "uint256",
          "name": "epoch",
          "type": "uint256"
        }
      ],
      "name": "ContractUnpaused",
      "type": "event"
    },
    {
      "anonymous": false,
      "inputs": [
        {
          "indexed": false,
          "internalType": "address",
          "name": "account",
          "type": "address"
        }
      ],
      "name": "ContractUnpaused",
      "type": "event"
    },
    {
      "anonymous": false,
      "inputs": [
        {
          "indexed": true,
          "internalType": "uint256",
          "name": "epoch",
          "type": "uint256"
        },
        {
          "indexed": false,
          "internalType": "int256",
          "name": "price",
          "type": "int256"
        },
        {
          "indexed": false,
          "internalType": "uint32",
          "name": "timestamp",
          "type": "uint32"
        }
      ],
      "name": "EndRound",
      "type": "event"
    },
    {
      "anonymous": false,
      "inputs": [
        {
          "indexed": true,
          "internalType": "address",
          "name": "sender",
          "type": "address"
        },
        {
          "indexed": true,
          "internalType": "uint256",
          "name": "epoch",
          "type": "uint256"
        },
        {
          "indexed": false,
          "internalType": "uint256",
          "name": "bullAmount",
          "type": "uint256"
        },
        {
          "indexed": false,
          "internalType": "uint256",
          "name": "bearAmount",
          "type": "uint256"
        }
      ],
      "name": "HouseBetMade",
      "type": "event"
    },
    {
      "anonymous": false,
      "inputs": [
        {
          "indexed": false,
          "internalType": "uint256",
          "name": "minRatioPercents",
          "type": "uint256"
        }
      ],
      "name": "HouseBetMinRatioUpdated",
      "type": "event"
    },
    {
      "anonymous": false,
      "inputs": [
        {
          "indexed": true,
          "internalType": "address",
          "name": "sender",
          "type": "address"
        }
      ],
      "name": "InjectFunds",
      "type": "event"
    },
    {
      "anonymous": false,
      "inputs": [
        {
          "indexed": true,
          "internalType": "uint256",
          "name": "epoch",
          "type": "uint256"
        },
        {
          "indexed": false,
          "internalType": "int256",
          "name": "price",
          "type": "int256"
        },
        {
          "indexed": false,
          "internalType": "uint32",
          "name": "timestamp",
          "type": "uint32"
        }
      ],
      "name": "LockRound",
      "type": "event"
    },
    {
      "anonymous": false,
      "inputs": [
        {
          "indexed": true,
          "internalType": "uint256",
          "name": "epoch",
          "type": "uint256"
        },
        {
          "indexed": false,
          "internalType": "uint256",
          "name": "minBetAmount",
          "type": "uint256"
        }
      ],
      "name": "MinBetAmountUpdated",
      "type": "event"
    },
    {
      "anonymous": false,
      "inputs": [
        {
          "indexed": false,
          "internalType": "string",
          "name": "priceSource",
          "type": "string"
        }
      ],
      "name": "NewPriceSource",
      "type": "event"
    },
    {
      "anonymous": false,
      "inputs": [
        {
          "indexed": false,
          "internalType": "address",
          "name": "newContract",
          "type": "address"
        }
      ],
      "name": "NewReferralsContract",
      "type": "event"
    },
    {
      "anonymous": false,
      "inputs": [
        {
          "indexed": true,
          "internalType": "address",
          "name": "previousOwner",
          "type": "address"
        },
        {
          "indexed": true,
          "internalType": "address",
          "name": "newOwner",
          "type": "address"
        }
      ],
      "name": "OwnershipTransferred",
      "type": "event"
    },
    {
      "anonymous": false,
      "inputs": [
        {
          "indexed": true,
          "internalType": "address",
          "name": "sender",
          "type": "address"
        },
        {
          "indexed": false,
          "internalType": "uint256",
          "name": "amount",
          "type": "uint256"
        }
      ],
      "name": "ReferralClaim",
      "type": "event"
    },
    {
      "anonymous": false,
      "inputs": [
        {
          "indexed": false,
          "internalType": "uint256",
          "name": "rewardRate",
          "type": "uint256"
        }
      ],
      "name": "RewardRateUpdated",
      "type": "event"
    },
    {
      "anonymous": false,
      "inputs": [
        {
          "indexed": true,
          "internalType": "uint256",
          "name": "epoch",
          "type": "uint256"
        },
        {
          "indexed": false,
          "internalType": "uint256",
          "name": "rewardBaseCalAmount",
          "type": "uint256"
        },
        {
          "indexed": false,
          "internalType": "uint256",
          "name": "rewardAmount",
          "type": "uint256"
        }
      ],
      "name": "RewardsCalculated",
      "type": "event"
    },
    {
      "anonymous": false,
      "inputs": [
        {
          "indexed": true,
          "internalType": "uint256",
          "name": "epoch",
          "type": "uint256"
        }
      ],
      "name": "StartRound",
      "type": "event"
    },
    {
      "inputs": [
        {
          "internalType": "uint256",
          "name": "",
          "type": "uint256"
        },
        {
          "internalType": "address",
          "name": "",
          "type": "address"
        }
      ],
      "name": "Bets",
      "outputs": [
        {
          "internalType": "enum DogeBetsPredictionV1.Position",
          "name": "position",
          "type": "uint8"
        },
        {
          "internalType": "uint256",
          "name": "amount",
          "type": "uint256"
        },
        {
          "internalType": "bool",
          "name": "claimed",
          "type": "bool"
        }
      ],
      "stateMutability": "view",
      "type": "function"
    },
    {
      "inputs": [],
      "name": "GetTotalReservedReferralFunds",
      "outputs": [
        {
          "internalType": "uint256",
          "name": "",
          "type": "uint256"
        }
      ],
      "stateMutability": "view",
      "type": "function"
    },
    {
      "inputs": [],
      "name": "IsPaused",
      "outputs": [
        {
          "internalType": "bool",
          "name": "",
          "type": "bool"
        }
      ],
      "stateMutability": "view",
      "type": "function"
    },
    {
      "inputs": [],
      "name": "OwnershipRenounce",
      "outputs": [],
      "stateMutability": "nonpayable",
      "type": "function"
    },
    {
      "inputs": [
        {
          "internalType": "address",
          "name": "newOwner",
          "type": "address"
        }
      ],
      "name": "OwnershipTransfer",
      "outputs": [],
      "stateMutability": "nonpayable",
      "type": "function"
    },
    {
      "inputs": [
        {
          "internalType": "address",
          "name": "user",
          "type": "address"
        }
      ],
      "name": "ReferralRewardsAvailable",
      "outputs": [
        {
          "internalType": "uint256",
          "name": "",
          "type": "uint256"
        }
      ],
      "stateMutability": "view",
      "type": "function"
    },
    {
      "inputs": [
        {
          "internalType": "uint256",
          "name": "",
          "type": "uint256"
        }
      ],
      "name": "Rounds",
      "outputs": [
        {
          "internalType": "uint256",
          "name": "epoch",
          "type": "uint256"
        },
        {
          "internalType": "uint256",
          "name": "bullAmount",
          "type": "uint256"
        },
        {
          "internalType": "uint256",
          "name": "bearAmount",
          "type": "uint256"
        },
        {
          "internalType": "uint256",
          "name": "rewardBaseCalAmount",
          "type": "uint256"
        },
        {
          "internalType": "uint256",
          "name": "rewardAmount",
          "type": "uint256"
        },
        {
          "internalType": "int256",
          "name": "lockPrice",
          "type": "int256"
        },
        {
          "internalType": "int256",
          "name": "closePrice",
          "type": "int256"
        },
        {
          "internalType": "uint32",
          "name": "startTimestamp",
          "type": "uint32"
        },
        {
          "internalType": "uint32",
          "name": "lockTimestamp",
          "type": "uint32"
        },
        {
          "internalType": "uint32",
          "name": "closeTimestamp",
          "type": "uint32"
        },
        {
          "internalType": "uint32",
          "name": "lockPriceTimestamp",
          "type": "uint32"
        },
        {
          "internalType": "uint32",
          "name": "closePriceTimestamp",
          "type": "uint32"
        },
        {
          "internalType": "bool",
          "name": "closed",
          "type": "bool"
        },
        {
          "internalType": "bool",
          "name": "canceled",
          "type": "bool"
        }
      ],
      "stateMutability": "view",
      "type": "function"
    },
    {
      "inputs": [
        {
          "internalType": "address",
          "name": "newContractAddress",
          "type": "address"
        }
      ],
      "name": "SetReferralsContract",
      "outputs": [],
      "stateMutability": "nonpayable",
      "type": "function"
    },
    {
      "inputs": [
        {
          "internalType": "address",
          "name": "",
          "type": "address"
        },
        {
          "internalType": "uint256",
          "name": "",
          "type": "uint256"
        }
      ],
      "name": "UserBets",
      "outputs": [
        {
          "internalType": "uint256",
          "name": "",
          "type": "uint256"
        }
      ],
      "stateMutability": "view",
      "type": "function"
    },
    {
      "inputs": [],
      "name": "currentEpoch",
      "outputs": [
        {
          "internalType": "uint256",
          "name": "",
          "type": "uint256"
        }
      ],
      "stateMutability": "view",
      "type": "function"
    },
    {
      "inputs": [],
      "name": "lockedOnce",
      "outputs": [
        {
          "internalType": "bool",
          "name": "",
          "type": "bool"
        }
      ],
      "stateMutability": "view",
      "type": "function"
    },
    {
      "inputs": [],
      "name": "minBetAmount",
      "outputs": [
        {
          "internalType": "uint256",
          "name": "",
          "type": "uint256"
        }
      ],
      "stateMutability": "view",
      "type": "function"
    },
    {
      "inputs": [],
      "name": "minimumRewardRate",
      "outputs": [
        {
          "internalType": "uint256",
          "name": "",
          "type": "uint256"
        }
      ],
      "stateMutability": "view",
      "type": "function"
    },
    {
      "inputs": [],
      "name": "operatorAddress",
      "outputs": [
        {
          "internalType": "address",
          "name": "",
          "type": "address"
        }
      ],
      "stateMutability": "view",
      "type": "function"
    },
    {
      "inputs": [],
      "name": "owner",
      "outputs": [
        {
          "internalType": "address",
          "name": "",
          "type": "address"
        }
      ],
      "stateMutability": "view",
      "type": "function"
    },
    {
      "inputs": [],
      "name": "priceSource",
      "outputs": [
        {
          "internalType": "string",
          "name": "",
          "type": "string"
        }
      ],
      "stateMutability": "view",
      "type": "function"
    },
    {
      "inputs": [],
      "name": "referralsContract",
      "outputs": [
        {
          "internalType": "address",
          "name": "",
          "type": "address"
        }
      ],
      "stateMutability": "view",
      "type": "function"
    },
    {
      "inputs": [],
      "name": "rewardRate",
      "outputs": [
        {
          "internalType": "uint256",
          "name": "",
          "type": "uint256"
        }
      ],
      "stateMutability": "view",
      "type": "function"
    },
    {
      "inputs": [],
      "name": "roundBuffer",
      "outputs": [
        {
          "internalType": "uint256",
          "name": "",
          "type": "uint256"
        }
      ],
      "stateMutability": "view",
      "type": "function"
    },
    {
      "inputs": [],
      "name": "roundInterval",
      "outputs": [
        {
          "internalType": "uint256",
          "name": "",
          "type": "uint256"
        }
      ],
      "stateMutability": "view",
      "type": "function"
    },
    {
      "inputs": [],
      "name": "startedOnce",
      "outputs": [
        {
          "internalType": "bool",
          "name": "",
          "type": "bool"
        }
      ],
      "stateMutability": "view",
      "type": "function"
    },
    {
      "inputs": [],
      "name": "user_ReferralFundsClaim",
      "outputs": [],
      "stateMutability": "nonpayable",
      "type": "function"
    },
    {
      "inputs": [
        {
          "internalType": "address",
          "name": "_operatorAddress",
          "type": "address"
        }
      ],
      "name": "SetOperator",
      "outputs": [],
      "stateMutability": "nonpayable",
      "type": "function"
    },
    {
      "inputs": [],
      "name": "FundsInject",
      "outputs": [],
      "stateMutability": "payable",
      "type": "function"
    },
    {
      "inputs": [
        {
          "internalType": "uint256",
          "name": "value",
          "type": "uint256"
        }
      ],
      "name": "FundsExtract",
      "outputs": [],
      "stateMutability": "nonpayable",
      "type": "function"
    },
    {
      "inputs": [
        {
          "internalType": "address",
          "name": "user",
          "type": "address"
        },
        {
          "internalType": "uint256",
          "name": "value",
          "type": "uint256"
        }
      ],
      "name": "RewardUser",
      "outputs": [],
      "stateMutability": "nonpayable",
      "type": "function"
    },
    {
      "inputs": [
        {
          "internalType": "address",
          "name": "userAddress",
          "type": "address"
        }
      ],
      "name": "BlackListInsert",
      "outputs": [],
      "stateMutability": "nonpayable",
      "type": "function"
    },
    {
      "inputs": [
        {
          "internalType": "address",
          "name": "userAddress",
          "type": "address"
        }
      ],
      "name": "BlackListRemove",
      "outputs": [],
      "stateMutability": "nonpayable",
      "type": "function"
    },
    {
      "inputs": [
        {
          "internalType": "string",
          "name": "newPriceSource",
          "type": "string"
        }
      ],
      "name": "ChangePriceSource",
      "outputs": [],
      "stateMutability": "nonpayable",
      "type": "function"
    },
    {
      "inputs": [
        {
          "internalType": "uint256",
          "name": "bullAmount",
          "type": "uint256"
        },
        {
          "internalType": "uint256",
          "name": "bearAmount",
          "type": "uint256"
        }
      ],
      "name": "HouseBet",
      "outputs": [],
      "stateMutability": "nonpayable",
      "type": "function"
    },
    {
      "inputs": [],
      "name": "Pause",
      "outputs": [],
      "stateMutability": "nonpayable",
      "type": "function"
    },
    {
      "inputs": [],
      "name": "Unpause",
      "outputs": [],
      "stateMutability": "nonpayable",
      "type": "function"
    },
    {
      "inputs": [],
      "name": "RoundStart",
      "outputs": [],
      "stateMutability": "nonpayable",
      "type": "function"
    },
    {
      "inputs": [
        {
          "internalType": "int256",
          "name": "price",
          "type": "int256"
        },
        {
          "internalType": "uint32",
          "name": "timestamp",
          "type": "uint32"
        }
      ],
      "name": "RoundLock",
      "outputs": [],
      "stateMutability": "nonpayable",
      "type": "function"
    },
    {
      "inputs": [
        {
          "internalType": "int256",
          "name": "price",
          "type": "int256"
        },
        {
          "internalType": "uint32",
          "name": "timestamp",
          "type": "uint32"
        },
        {
          "internalType": "uint256",
          "name": "betOnBull",
          "type": "uint256"
        },
        {
          "internalType": "uint256",
          "name": "betOnBear",
          "type": "uint256"
        }
      ],
      "name": "Execute",
      "outputs": [],
      "stateMutability": "nonpayable",
      "type": "function"
    },
    {
      "inputs": [
        {
          "internalType": "uint256",
          "name": "epoch",
          "type": "uint256"
        },
        {
          "internalType": "bool",
          "name": "canceled",
          "type": "bool"
        },
        {
          "internalType": "bool",
          "name": "closed",
          "type": "bool"
        }
      ],
      "name": "RoundCancel",
      "outputs": [],
      "stateMutability": "nonpayable",
      "type": "function"
    },
    {
      "inputs": [
        {
          "internalType": "uint256",
          "name": "roundBufferSeconds",
          "type": "uint256"
        },
        {
          "internalType": "uint256",
          "name": "roundIntervalSeconds",
          "type": "uint256"
        }
      ],
      "name": "SetRoundBufferAndInterval",
      "outputs": [],
      "stateMutability": "nonpayable",
      "type": "function"
    },
    {
      "inputs": [
        {
          "internalType": "uint256",
          "name": "minBearToBullRatioPercents",
          "type": "uint256"
        }
      ],
      "name": "SetHouseBetMinRatio",
      "outputs": [],
      "stateMutability": "nonpayable",
      "type": "function"
    },
    {
      "inputs": [
        {
          "internalType": "uint256",
          "name": "newRewardRate",
          "type": "uint256"
        }
      ],
      "name": "SetRewardRate",
      "outputs": [],
      "stateMutability": "nonpayable",
      "type": "function"
    },
    {
      "inputs": [
        {
          "internalType": "uint256",
          "name": "newMinBetAmount",
          "type": "uint256"
        }
      ],
      "name": "SetMinBetAmount",
      "outputs": [],
      "stateMutability": "nonpayable",
      "type": "function"
    },
    {
      "inputs": [
        {
          "internalType": "uint256",
          "name": "epoch",
          "type": "uint256"
        },
        {
          "internalType": "address",
          "name": "newReferrer",
          "type": "address"
        }
      ],
      "name": "user_BetBullSpecial",
      "outputs": [],
      "stateMutability": "payable",
      "type": "function"
    },
    {
      "inputs": [
        {
          "internalType": "uint256",
          "name": "epoch",
          "type": "uint256"
        }
      ],
      "name": "user_BetBull",
      "outputs": [],
      "stateMutability": "payable",
      "type": "function"
    },
    {
      "inputs": [
        {
          "internalType": "uint256",
          "name": "epoch",
          "type": "uint256"
        },
        {
          "internalType": "address",
          "name": "newReferrer",
          "type": "address"
        }
      ],
      "name": "user_BetBearSpecial",
      "outputs": [],
      "stateMutability": "payable",
      "type": "function"
    },
    {
      "inputs": [
        {
          "internalType": "uint256",
          "name": "epoch",
          "type": "uint256"
        }
      ],
      "name": "user_BetBear",
      "outputs": [],
      "stateMutability": "payable",
      "type": "function"
    },
    {
      "inputs": [
        {
          "internalType": "uint256[]",
          "name": "epochs",
          "type": "uint256[]"
        }
      ],
      "name": "user_Claim",
      "outputs": [],
      "stateMutability": "nonpayable",
      "type": "function"
    },
    {
      "inputs": [
        {
          "internalType": "address",
          "name": "user",
          "type": "address"
        },
        {
          "internalType": "uint256",
          "name": "cursor",
          "type": "uint256"
        },
        {
          "internalType": "uint256",
          "name": "size",
          "type": "uint256"
        }
      ],
      "name": "GetUserRounds",
      "outputs": [
        {
          "internalType": "uint256[]",
          "name": "",
          "type": "uint256[]"
        },
        {
          "components": [
            {
              "internalType": "enum DogeBetsPredictionV1.Position",
              "name": "position",
              "type": "uint8"
            },
            {
              "internalType": "uint256",
              "name": "amount",
              "type": "uint256"
            },
            {
              "internalType": "bool",
              "name": "claimed",
              "type": "bool"
            }
          ],
          "internalType": "struct DogeBetsPredictionV1.BetInfo[]",
          "name": "",
          "type": "tuple[]"
        },
        {
          "internalType": "uint256",
          "name": "",
          "type": "uint256"
        }
      ],
      "stateMutability": "view",
      "type": "function"
    },
    {
      "inputs": [
        {
          "internalType": "address",
          "name": "user",
          "type": "address"
        }
      ],
      "name": "GetUserRoundsLength",
      "outputs": [
        {
          "internalType": "uint256",
          "name": "",
          "type": "uint256"
        }
      ],
      "stateMutability": "view",
      "type": "function"
    },
    {
      "inputs": [
        {
          "internalType": "uint256",
          "name": "epoch",
          "type": "uint256"
        },
        {
          "internalType": "address",
          "name": "user",
          "type": "address"
        }
      ],
      "name": "Claimable",
      "outputs": [
        {
          "internalType": "bool",
          "name": "",
          "type": "bool"
        }
      ],
      "stateMutability": "view",
      "type": "function"
    },
    {
      "inputs": [
        {
          "internalType": "uint256",
          "name": "epoch",
          "type": "uint256"
        },
        {
          "internalType": "address",
          "name": "user",
          "type": "address"
        }
      ],
      "name": "Refundable",
      "outputs": [
        {
          "internalType": "bool",
          "name": "",
          "type": "bool"
        }
      ],
      "stateMutability": "view",
      "type": "function"
    },
    {
      "inputs": [
        {
          "internalType": "uint256",
          "name": "betBull",
          "type": "uint256"
        },
        {
          "internalType": "uint256",
          "name": "betBear",
          "type": "uint256"
        }
      ],
      "name": "HouseBetsWithinLimits",
      "outputs": [
        {
          "internalType": "bool",
          "name": "",
          "type": "bool"
        }
      ],
      "stateMutability": "view",
      "type": "function"
    },
    {
      "inputs": [],
      "name": "currentSettings",
      "outputs": [
        {
          "internalType": "bool",
          "name": "",
          "type": "bool"
        },
        {
          "internalType": "bool",
          "name": "",
          "type": "bool"
        },
        {
          "internalType": "bool",
          "name": "",
          "type": "bool"
        },
        {
          "internalType": "uint256",
          "name": "",
          "type": "uint256"
        },
        {
          "internalType": "uint256",
          "name": "",
          "type": "uint256"
        },
        {
          "internalType": "string",
          "name": "",
          "type": "string"
        },
        {
          "internalType": "uint256",
          "name": "",
          "type": "uint256"
        }
      ],
      "stateMutability": "view",
      "type": "function"
    },
    {
      "inputs": [],
      "name": "currentBlockNumber",
      "outputs": [
        {
          "internalType": "uint256",
          "name": "",
          "type": "uint256"
        }
      ],
      "stateMutability": "view",
      "type": "function"
    },
    {
      "inputs": [],
      "name": "currentBlockTimestamp",
      "outputs": [
        {
          "internalType": "uint256",
          "name": "",
          "type": "uint256"
        }
      ],
      "stateMutability": "view",
      "type": "function"
    }
  ],
  "bytecode": "0x6080604052605a600c55605f600d5561012c600e55601e600f5566038d7ea4c680006010556011805461ffff191690553480156200003c57600080fd5b5060405162004bac38038062004bac8339810160408190526200005f9162000190565b600080546001600160a01b031916339081178255604051909182917f8be0079c531659141344cd1fd0a4f28419497f9722a3daafe3b4186f6b6457e0908290a3506000805460ff60a01b1916905560018055600a80546001600160a01b0319166001600160a01b0384161790558051620000e190600b906020840190620000ea565b505050620002e3565b828054620000f89062000290565b90600052602060002090601f0160209004810192826200011c576000855562000167565b82601f106200013757805160ff191683800117855562000167565b8280016001018555821562000167579182015b82811115620001675782518255916020019190600101906200014a565b506200017592915062000179565b5090565b5b808211156200017557600081556001016200017a565b60008060408385031215620001a457600080fd5b82516001600160a01b0381168114620001bc57600080fd5b602084810151919350906001600160401b0380821115620001dc57600080fd5b818601915086601f830112620001f157600080fd5b815181811115620002065762000206620002cd565b604051601f8201601f19908116603f01168101908382118183101715620002315762000231620002cd565b8160405282815289868487010111156200024a57600080fd5b600093505b828410156200026e57848401860151818501870152928501926200024f565b82841115620002805760008684830101525b8096505050505050509250929050565b600181811c90821680620002a557607f821691505b60208210811415620002c757634e487b7160e01b600052602260045260246000fd5b50919050565b634e487b7160e01b600052604160045260246000fd5b6148b980620002f36000396000f3fe6080604052600436106103195760003560e01c80637b0a47ee116101ab578063b4d7462b116100f7578063dfc3969111610095578063ef659dd51161006f578063ef659dd5146109ba578063f049d2fb146109da578063fa968eea146109fa578063fd5bab2314610a1057600080fd5b8063dfc3969114610952578063e20a66d014610972578063eed914cd1461099257600080fd5b8063cf48098e116100d1578063cf48098e14610842578063d5df9d2314610862578063da56b6451461091f578063dbebfba61461093257600080fd5b8063b4d7462b146107d2578063b605170b14610808578063c070c8d31461082257600080fd5b80638bf8d910116101645780639137ce2e1161013e5780639137ce2e1461075657806396e7f705146107765780639954f51c14610789578063abf81272146107bf57600080fd5b80638bf8d910146106f85780638da5cb5b146107185780638df3f8261461073657600080fd5b80637b0a47ee1461066f57806381e497a21461068557806382f8b6e9146106a557806383d2f5a0146106bb578063893251b7146106c357806389ca45b9146106e357600080fd5b80632d0616ff1161026a57806348894f0d1161022357806353df800b116101fd57806353df800b1461060f5780636985a0221461062f57806376671808146106445780637805862f1461065a57600080fd5b806348894f0d146105b95780634aad6704146105d95780634e1aaa99146105f957600080fd5b80632d0616ff146104da5780632ef9bd75146104ed57806332f3b1b31461050c578063378ec23b1461052b5780633977b3811461053e57806347eaafa71461059957600080fd5b806314c593b9116102d75780631b0f90c0116102b15780631b0f90c01461046e5780631f713cae1461048e57806320531bc9146104a35780632529061d146104c557600080fd5b806314c593b91461040e5780631946fb781461042e5780631a7fc50e1461044e57600080fd5b8062dcc3af1461031e578063088f0b7f1461033357806311adcf8d14610353578063120e75e81461038b578063127effb2146103ab5780631309a563146103e3575b600080fd5b61033161032c3660046142c2565b610a25565b005b34801561033f57600080fd5b5061033161034e366004614290565b610ae3565b34801561035f57600080fd5b5061037361036e3660046140b1565b610bd9565b604051610382939291906143c0565b60405180910390f35b34801561039757600080fd5b506103316103a63660046142f2565b610e30565b3480156103b757600080fd5b50600a546103cb906001600160a01b031681565b6040516001600160a01b039091168152602001610382565b3480156103ef57600080fd5b50600054600160a01b900460ff165b6040519015158152602001610382565b34801561041a57600080fd5b506103fe6104293660046142c2565b610e7f565b34801561043a57600080fd5b50610331610449366004614290565b611017565b34801561045a57600080fd5b50610331610469366004614044565b6110e3565b34801561047a57600080fd5b50610331610489366004614085565b61119a565b34801561049a57600080fd5b506103316111d2565b3480156104af57600080fd5b506104b86112b9565b60405161038291906144d2565b3480156104d157600080fd5b50610331611347565b6103316104e83660046142c2565b611425565b3480156104f957600080fd5b506011546103fe90610100900460ff1681565b34801561051857600080fd5b506004545b604051908152602001610382565b34801561053757600080fd5b504361051d565b34801561054a57600080fd5b5061058a6105593660046142c2565b600660209081526000928352604080842090915290825290208054600182015460029092015460ff91821692911683565b604051610382939291906144ae565b3480156105a557600080fd5b506103316105b4366004614334565b6114d2565b3480156105c557600080fd5b506103316105d4366004614290565b6115f8565b3480156105e557600080fd5b506103316105f4366004614044565b611660565b34801561060557600080fd5b5061051d600f5481565b34801561061b57600080fd5b506103fe61062a366004614334565b611713565b34801561063b57600080fd5b50610331611758565b34801561065057600080fd5b5061051d60095481565b34801561066657600080fd5b506103316117f7565b34801561067b57600080fd5b5061051d600d5481565b34801561069157600080fd5b506103316106a03660046141a4565b6118c7565b3480156106b157600080fd5b5061051d600e5481565b610331611d33565b3480156106cf57600080fd5b506103316106de3660046141df565b611d8a565b3480156106ef57600080fd5b5061051d605a81565b34801561070457600080fd5b506002546103cb906001600160a01b031681565b34801561072457600080fd5b506000546001600160a01b03166103cb565b34801561074257600080fd5b50610331610751366004614290565b611e48565b34801561076257600080fd5b50610331610771366004614334565b611e8b565b610331610784366004614290565b611f86565b34801561079557600080fd5b5061051d6107a4366004614044565b6001600160a01b031660009081526003602052604090205490565b3480156107cb57600080fd5b504261051d565b3480156107de57600080fd5b5061051d6107ed366004614044565b6001600160a01b031660009081526007602052604090205490565b34801561081457600080fd5b506011546103fe9060ff1681565b34801561082e57600080fd5b5061033161083d366004614178565b612032565b34801561084e57600080fd5b5061051d61085d366004614085565b61230d565b34801561086e57600080fd5b5061090561087d366004614290565b600560208190526000918252604090912080546001820154600283015460038401546004850154958501546006860154600790960154949693959294919392909163ffffffff80821691600160201b8104821691600160401b8204811691600160601b8104821691600160801b8204169060ff600160a01b8204811691600160a81b9004168e565b6040516103829e9d9c9b9a99989796959493929190614683565b61033161092d366004614290565b61233e565b34801561093e57600080fd5b5061033161094d366004614044565b6123ea565b34801561095e57600080fd5b5061033161096d366004614044565b612485565b34801561097e57600080fd5b5061033161098d366004614044565b61256f565b34801561099e57600080fd5b506109a76126c1565b6040516103829796959493929190614463565b3480156109c657600080fd5b506103316109d53660046140e6565b6127a3565b3480156109e657600080fd5b506103fe6109f53660046142c2565b612cd6565b348015610a0657600080fd5b5061051d60105481565b348015610a1c57600080fd5b50610331612ebe565b600054600160a01b900460ff1615610a585760405162461bcd60e51b8152600401610a4f90614569565b60405180910390fd5b60026001541415610a7b5760405162461bcd60e51b8152600401610a4f9061464c565b6002600155333b15610a9f5760405162461bcd60e51b8152600401610a4f9061461e565b333214610abe5760405162461bcd60e51b8152600401610a4f906144e5565b610ac782612f32565b610ad08161311d565b610adb6000836134e3565b505060018055565b6000546001600160a01b03163314610b0d5760405162461bcd60e51b8152600401610a4f90614593565b806000108015610b1d5750606481105b610b9d5760405162461bcd60e51b815260206004820152604560248201527f537570706c6965642076616c7565206973206f75742d6f662d626f756e64733a60448201527f2030203c206d696e42656172546f42756c6c526174696f50657263656e74732060648201526403c203130360dc1b608482015260a401610a4f565b600c8190556040518181527f96c841af0a7ea45eefac009f012f194f107d9bccf9a07d515d1b709f70f03f0d906020015b60405180910390a150565b6001600160a01b03831660009081526007602052604081205460609182918490610c0490879061476f565b811115610c32576001600160a01b038716600090815260076020526040902054610c2f90879061476f565b90505b60008167ffffffffffffffff811115610c4d57610c4d61484a565b604051908082528060200260200182016040528015610c76578160200160208202803683370190505b50905060008267ffffffffffffffff811115610c9457610c9461484a565b604051908082528060200260200182016040528015610cdf57816020015b6040805160608101825260008082526020808301829052928201528252600019909201910181610cb25790505b50905060005b83811015610e11576001600160a01b038a166000908152600760205260409020610d0f828b614716565b81548110610d1f57610d1f614834565b9060005260206000200154838281518110610d3c57610d3c614834565b60200260200101818152505060066000848381518110610d5e57610d5e614834565b602090810291909101810151825281810192909252604090810160009081206001600160a01b038e168252909252908190208151606081019092528054829060ff166001811115610db157610db161481e565b6001811115610dc257610dc261481e565b81526001820154602082015260029091015460ff1615156040909101528251839083908110610df357610df3614834565b60200260200101819052508080610e09906147ed565b915050610ce5565b508181610e1e858b614716565b95509550955050505093509350939050565b6000546001600160a01b0316331480610e535750600a546001600160a01b031633145b610e6f5760405162461bcd60e51b8152600401610a4f9061451c565b610e7a8383836136d0565b505050565b60008281526006602090815260408083206001600160a01b0385168452909152808220815160608101909252805483929190829060ff166001811115610ec757610ec761481e565b6001811115610ed857610ed861481e565b815260018281015460208084019190915260029384015460ff908116151560409485015260008a815260058084529085902085516101c081018752815481529481015493850193909352948201549383019390935260038101546060830152600481015460808301529283015460a0820152600683015460c082015260079092015463ffffffff80821660e0850152600160201b82048116610100850152600160401b82048116610120850152600160601b82048116610140850152600160801b820416610160840152600160a01b810482161580156101808501819052600160a81b90920490921615156101a08401529293509091610fda57508160400151155b8015610ffd5750600f5481610120015163ffffffff16610ffa9190614716565b42115b801561100c5750602082015115155b925050505b92915050565b6000546001600160a01b031633146110415760405162461bcd60e51b8152600401610a4f90614593565b605a8110156110ae5760405162461bcd60e51b815260206004820152603360248201527f52657761726420726174652063616e2774206265206c6f776572207468616e206044820152726d696e696d756d20726577617264207261746560681b6064820152608401610a4f565b600d8190556040518181527f41d466ebd06fb97e7786086ac8b69b7eb7da798592036251291d34e9791cde0190602001610bce565b6000546001600160a01b0316331461110d5760405162461bcd60e51b8152600401610a4f90614593565b6001600160a01b03811660009081526008602052604090205460ff16156111765760405162461bcd60e51b815260206004820152601b60248201527f4164647265737320616c726561647920626c61636b6c697374656400000000006044820152606401610a4f565b6001600160a01b03166000908152600860205260409020805460ff19166001179055565b6000546001600160a01b031633146111c45760405162461bcd60e51b8152600401610a4f90614593565b6111ce828261373a565b5050565b6000546001600160a01b03163314806111f55750600a546001600160a01b031633145b6112115760405162461bcd60e51b8152600401610a4f9061451c565b600054600160a01b900460ff161561123b5760405162461bcd60e51b8152600401610a4f90614569565b60115460ff161561128e5760405162461bcd60e51b815260206004820152601c60248201527f43616e206f6e6c792072756e207374617274526f756e64206f6e6365000000006044820152606401610a4f565b60095461129c906001614716565b60098190556112aa906137d3565b6011805460ff19166001179055565b600b80546112c6906147b2565b80601f01602080910402602001604051908101604052809291908181526020018280546112f2906147b2565b801561133f5780601f106113145761010080835404028352916020019161133f565b820191906000526020600020905b81548152906001019060200180831161132257829003601f168201915b505050505081565b6002600154141561136a5760405162461bcd60e51b8152600401610a4f9061464c565b6002600155333b1561138e5760405162461bcd60e51b8152600401610a4f9061461e565b3332146113ad5760405162461bcd60e51b8152600401610a4f906144e5565b3360008181526003602090815260408083208054939055518281529192917f8e61dcbd2b7027a08a902495ec4611753aeceb86926f21ea629f4167534dbec6910160405180910390a2801561141e57806004600082825461140e919061476f565b9091555061141e9050338261373a565b5060018055565b600054600160a01b900460ff161561144f5760405162461bcd60e51b8152600401610a4f90614569565b600260015414156114725760405162461bcd60e51b8152600401610a4f9061464c565b6002600155333b156114965760405162461bcd60e51b8152600401610a4f9061461e565b3332146114b55760405162461bcd60e51b8152600401610a4f906144e5565b6114be82612f32565b6114c78161311d565b610adb6001836134e3565b6000546001600160a01b03163314806114f55750600a546001600160a01b031633145b6115115760405162461bcd60e51b8152600401610a4f9061451c565b600054600160a01b900460ff161561153b5760405162461bcd60e51b8152600401610a4f90614569565b333b1561155a5760405162461bcd60e51b8152600401610a4f9061461e565b3332146115795760405162461bcd60e51b8152600401610a4f906144e5565b6115846009546138a7565b6115c55760405162461bcd60e51b8152602060048201526012602482015271526f756e64206e6f74206265747461626c6560701b6044820152606401610a4f565b6115cf8183614716565b4710156115ee5760405162461bcd60e51b8152600401610a4f906145c8565b6111ce8282613938565b6000546001600160a01b031633146116225760405162461bcd60e51b8152600401610a4f90614593565b60108190556009546040518281527f82480e97991520549ac4b5d0e1d97edb3bfac2666202923b6903d2a953dc76089060200160405180910390a250565b6000546001600160a01b0316331461168a5760405162461bcd60e51b8152600401610a4f90614593565b6001600160a01b03811660009081526008602052604090205460ff166116f25760405162461bcd60e51b815260206004820152601a60248201527f41646472657373206973206e6f7420626c61636b6c69737465640000000000006044820152606401610a4f565b6001600160a01b03166000908152600860205260409020805460ff19169055565b600080600c54612710611726919061472e565b9050600083611736866064614750565b611740919061472e565b905080600c541115801561100c575011159392505050565b6000546001600160a01b031633148061177b5750600a546001600160a01b031633145b6117975760405162461bcd60e51b8152600401610a4f9061451c565b600054600160a01b900460ff16156117c15760405162461bcd60e51b8152600401610a4f90614569565b6117c9613a6b565b6009546040517f1f56865eed36853b82b13b742f7f60f4056c34e5a8b727e2c67c12190da413ca90600090a2565b6000546001600160a01b031633148061181a5750600a546001600160a01b031633145b6118365760405162461bcd60e51b8152600401610a4f9061451c565b600054600160a01b900460ff166118865760405162461bcd60e51b815260206004820152601460248201527314185d5cd8589b194e881b9bdd081c185d5cd95960621b6044820152606401610a4f565b6011805461ffff19169055611899613aed565b6009546040517fcc6136896eea025320355c56bdfb6974936c220ab7c4736057928dc31c38140990600090a2565b6000546001600160a01b03163314806118ea5750600a546001600160a01b031633145b6119065760405162461bcd60e51b8152600401610a4f9061451c565b600054600160a01b900460ff16156119305760405162461bcd60e51b8152600401610a4f90614569565b60115460ff1680156119495750601154610100900460ff165b6119bb5760405162461bcd60e51b815260206004820152603c60248201527f43616e206f6e6c792065786563757465206166746572205374617274526f756e60448201527f6420616e64204c6f636b526f756e6420697320747269676765726564000000006064820152608401610a4f565b6005600060026009546119ce919061476f565b8152602081019190915260400160002060070154600160401b900463ffffffff16611a615760405162461bcd60e51b815260206004820152603f60248201527f43616e206f6e6c79206578656375746520616674657220726f756e64206e2d3260448201527f2068617320656e64656428636c6f736554696d657374616d7020213d203029006064820152608401610a4f565b600560006002600954611a74919061476f565b8152602081019190915260400160002060070154600160401b900463ffffffff16421015611afe5760405162461bcd60e51b815260206004820152603160248201527f43616e206f6e6c79207374617274206e657720726f756e6420616674657220726044820152706f756e64206e2d3220656e64426c6f636b60781b6064820152608401610a4f565b600954600090815260056020526040902060070154600160201b900463ffffffff16421015611b955760405162461bcd60e51b815260206004820152603d60248201527f546f6f20736f6f6e212043616e206f6e6c79206578656375746520616674657260448201527f2063757272656e7420726f756e64202e6c6f636b54696d657374616d700000006064820152608401610a4f565b600954600090815260056020526040902060070154600160401b900463ffffffff16421115611c2c5760405162461bcd60e51b815260206004820152603f60248201527f546f6f206c617465212043616e206f6e6c792065786563757465206265666f7260448201527f652063757272656e7420726f756e64202e636c6f736554696d657374616d70006064820152608401610a4f565b611c368183614716565b471015611c555760405162461bcd60e51b8152600401610a4f906145c8565b611c5f8282611713565b611cbe5760405162461bcd60e51b815260206004820152602a60248201527f446966666572656e6365206265747765656e20686f7573652062657473206973604482015269081d1bdbc819dc99585d60b21b6064820152608401610a4f565b611ccb6009548585613b71565b611ce46001600954611cdd919061476f565b8585613bee565b611cfb6001600954611cf6919061476f565b613c77565b611d126009546001611d0d9190614716565b6137d3565b600954611d20906001614716565b600955611d2d8282613938565b50505050565b6000546001600160a01b03163314611d5d5760405162461bcd60e51b8152600401610a4f90614593565b60405133907f03176945bb121d84b7e9557d5bd803f220a2d316c5b826ffa535c0dfacaa69a490600090a2565b6000546001600160a01b03163314611db45760405162461bcd60e51b8152600401610a4f90614593565b6000815111611e055760405162461bcd60e51b815260206004820152601d60248201527f507269636520736f757263652063616e206e6f7420626520656d7074790000006044820152606401610a4f565b8051611e1890600b906020840190613f92565b507fbc21733498ec44b084b7533f78e8729e03412fde9bcecedb73519701ae7ad72c81604051610bce91906144d2565b6000546001600160a01b03163314611e725760405162461bcd60e51b8152600401610a4f90614593565b600054611e88906001600160a01b03168261373a565b50565b6000546001600160a01b0316331480611eae5750600a546001600160a01b031633145b611eca5760405162461bcd60e51b8152600401610a4f9061451c565b808210611f3f5760405162461bcd60e51b815260206004820152603960248201527f726f756e644275666665725365636f6e6473206d757374206265206c6573732060448201527f7468616e20726f756e64496e74657276616c5365636f6e6473000000000000006064820152608401610a4f565b600f829055600e81905560408051838152602081018390527f3cb647d609162751bcf149ec3efda364f105672dc38492d90b895b68fd8c507d910160405180910390a15050565b600054600160a01b900460ff1615611fb05760405162461bcd60e51b8152600401610a4f90614569565b60026001541415611fd35760405162461bcd60e51b8152600401610a4f9061464c565b6002600155333b15611ff75760405162461bcd60e51b8152600401610a4f9061461e565b3332146120165760405162461bcd60e51b8152600401610a4f906144e5565b61201f81612f32565b612027613dc9565b61141e6000826134e3565b6000546001600160a01b03163314806120555750600a546001600160a01b031633145b6120715760405162461bcd60e51b8152600401610a4f9061451c565b600054600160a01b900460ff161561209b5760405162461bcd60e51b8152600401610a4f90614569565b60115460ff166121005760405162461bcd60e51b815260206004820152602a60248201527f43616e206f6e6c792072756e206166746572207374617274526f756e64206973604482015269081d1c9a59d9d95c995960b21b6064820152608401610a4f565b601154610100900460ff16156121585760405162461bcd60e51b815260206004820152601b60248201527f43616e206f6e6c792072756e206c6f636b526f756e64206f6e636500000000006044820152606401610a4f565b60095460009081526005602052604090206007015463ffffffff166121d35760405162461bcd60e51b815260206004820152602b60248201527f43616e206f6e6c79206c6f636b20726f756e6420616674657220726f756e642060448201526a1a185cc81cdd185c9d195960aa1b6064820152608401610a4f565b600954600090815260056020526040902060070154600160201b900463ffffffff164210156122555760405162461bcd60e51b815260206004820152602860248201527f43616e206f6e6c79206c6f636b20726f756e64206166746572206c6f636b20746044820152670696d657374616d760c41b6064820152608401610a4f565b600954600090815260056020526040902060070154600160401b900463ffffffff164211156122d15760405162461bcd60e51b815260206004820152602260248201527f43616e206f6e6c79206c6f636b206265666f726520656e642074696d6573746160448201526106d760f41b6064820152608401610a4f565b6122de6009548383613b71565b6009546122ec906001614716565b60098190556122fa906137d3565b50506011805461ff001916610100179055565b6007602052816000526040600020818154811061232957600080fd5b90600052602060002001600091509150505481565b600054600160a01b900460ff16156123685760405162461bcd60e51b8152600401610a4f90614569565b6002600154141561238b5760405162461bcd60e51b8152600401610a4f9061464c565b6002600155333b156123af5760405162461bcd60e51b8152600401610a4f9061461e565b3332146123ce5760405162461bcd60e51b8152600401610a4f906144e5565b6123d781612f32565b6123df613dc9565b61141e6001826134e3565b6000546001600160a01b031633146124145760405162461bcd60e51b8152600401610a4f90614593565b6001600160a01b0381166124635760405162461bcd60e51b815260206004820152601660248201527543616e6e6f74206265207a65726f206164647265737360501b6044820152606401610a4f565b600a80546001600160a01b0319166001600160a01b0392909216919091179055565b6000546001600160a01b031633146124af5760405162461bcd60e51b8152600401610a4f90614593565b6001600160a01b0381166125145760405162461bcd60e51b815260206004820152602660248201527f4f776e61626c653a206e6577206f776e657220697320746865207a65726f206160448201526564647265737360d01b6064820152608401610a4f565b600080546040516001600160a01b03808516939216917f8be0079c531659141344cd1fd0a4f28419497f9722a3daafe3b4186f6b6457e091a3600080546001600160a01b0319166001600160a01b0392909216919091179055565b6000546001600160a01b031633146125995760405162461bcd60e51b8152600401610a4f90614593565b6001600160a01b0381166125ef5760405162461bcd60e51b815260206004820152601760248201527f63616e206e6f74206265207a65726f20616464726573730000000000000000006044820152606401610a4f565b6002546001600160a01b03828116911614156126735760405162461bcd60e51b815260206004820152603d60248201527f74686973206164647265737320697320616c726561647920736574206173207460448201527f68652063757272656e7420726566657272616c7320636f6e74726163740000006064820152608401610a4f565b600280546001600160a01b0319166001600160a01b0383169081179091556040519081527fc054659f67319997e839fbecc4fe72fb4c106fa9198fc7212ef6bea62f9a5bda90602001610bce565b6000806000806000606060006126e160005460ff600160a01b9091041690565b601154600e54600f54600c54600b805460ff8087169661010090041694939290829061270c906147b2565b80601f0160208091040260200160405190810160405280929190818152602001828054612738906147b2565b80156127855780601f1061275a57610100808354040283529160200191612785565b820191906000526020600020905b81548152906001019060200180831161276857829003601f168201915b50505050509150965096509650965096509650965090919293949596565b600260015414156127c65760405162461bcd60e51b8152600401610a4f9061464c565b6002600155333b156127ea5760405162461bcd60e51b8152600401610a4f9061461e565b3332146128095760405162461bcd60e51b8152600401610a4f906144e5565b6000805b82811015612cbc576005600085858481811061282b5761282b614834565b602090810292909201358352508101919091526040016000206007015463ffffffff166128925760405162461bcd60e51b8152602060048201526015602482015274149bdd5b99081a185cc81b9bdd081cdd185c9d1959605a1b6044820152606401610a4f565b600560008585848181106128a8576128a8614834565b90506020020135815260200190815260200160002060070160089054906101000a900463ffffffff1663ffffffff16421161291b5760405162461bcd60e51b8152602060048201526013602482015272149bdd5b99081a185cc81b9bdd08195b991959606a1b6044820152606401610a4f565b60006005600086868581811061293357612933614834565b90506020020135815260200190815260200160002060070160149054906101000a900460ff1615612b2e5761298085858481811061297357612973614834565b9050602002013533612cd6565b6129c45760405162461bcd60e51b81526020600482015260156024820152744e6f7420656c696769626c6520746f20636c61696d60581b6044820152606401610a4f565b6000600560008787868181106129dc576129dc614834565b60209081029290920135835250818101929092526040908101600090812082516101c08101845281548152600182015494810194909452600281015492840192909252600382015460608401819052600483015460808501819052600584015460a086015260068085015460c087015260079094015463ffffffff80821660e0880152600160201b82048116610100880152600160401b82048116610120880152600160601b82048116610140880152600160801b82041661016087015260ff600160a01b820481161515610180880152600160a81b9091041615156101a0860152939450929190898988818110612ad657612ad6614834565b9050602002013581526020019081526020016000206000336001600160a01b03166001600160a01b0316815260200190815260200160002060010154612b1c9190614750565b612b26919061472e565b915050612bf1565b612b50858584818110612b4357612b43614834565b9050602002013533610e7f565b612b9c5760405162461bcd60e51b815260206004820152601760248201527f4e6f7420656c696769626c6520666f7220726566756e640000000000000000006044820152606401610a4f565b60066000868685818110612bb257612bb2614834565b9050602002013581526020019081526020016000206000336001600160a01b03166001600160a01b031681526020019081526020016000206001015490505b600160066000878786818110612c0957612c09614834565b6020908102929092013583525081810192909252604090810160009081203382529092529020600201805460ff1916911515919091179055612c4b8184614716565b9250848483818110612c5f57612c5f614834565b90506020020135336001600160a01b03167f34fcbac0073d7c3d388e51312faf357774904998eeb8fca628b9e6f65ee1cbf783604051612ca191815260200190565b60405180910390a35080612cb4816147ed565b91505061280d565b508015612ccd57612ccd338261373a565b50506001805550565b60008281526006602090815260408083206001600160a01b0385168452909152808220815160608101909252805483929190829060ff166001811115612d1e57612d1e61481e565b6001811115612d2f57612d2f61481e565b815260018281015460208084019190915260029384015460ff908116151560409485015260008a815260058084529085902085516101c081018752815481529481015493850193909352948201549383019390935260038101546060830152600481015460808301529283015460a08201819052600684015460c0830181905260079094015463ffffffff80821660e0850152600160201b82048116610100850152600160401b82048116610120850152600160601b82048116610140850152600160801b820416610160840152600160a01b810484161515610180840152600160a81b900490921615156101a08201529293501415612e3457600092505050611011565b8061018001518015612e4857508160400151155b8015612e575750602082015115155b801561100c57508060a001518160c00151138015612e875750600082516001811115612e8557612e8561481e565b145b8061100c57508060a001518160c0015112801561100c5750600182516001811115612eb457612eb461481e565b1495945050505050565b6000546001600160a01b03163314612ee85760405162461bcd60e51b8152600401610a4f90614593565b600080546040516001600160a01b03909116907f8be0079c531659141344cd1fd0a4f28419497f9722a3daafe3b4186f6b6457e0908390a3600080546001600160a01b0319169055565b6009548114612f7b5760405162461bcd60e51b815260206004820152601560248201527442657420697320746f6f206561726c792f6c61746560581b6044820152606401610a4f565b612f84816138a7565b612fec5760405162461bcd60e51b815260206004820152603360248201527f526f756e64206e6f74206265747461626c652e20596f75206d6967687420626560448201527220746f6f206561726c792f746f6f206c61746560681b6064820152608401610a4f565b6010543410156130535760405162461bcd60e51b815260206004820152602c60248201527f42657420616d6f756e74206d7573742062652067726561746572207468616e2060448201526b1b5a5b90995d105b5bdd5b9d60a21b6064820152608401610a4f565b6000818152600660209081526040808320338452909152902060010154156130bd5760405162461bcd60e51b815260206004820152601b60248201527f43616e206f6e6c7920626574206f6e63652070657220726f756e6400000000006044820152606401610a4f565b3360009081526008602052604090205460ff1615611e885760405162461bcd60e51b815260206004820152601c60248201527f426c61636b6c6973746564212041726520796f75206120626f74203f000000006044820152606401610a4f565b600254604051630437888160e01b81523360048201526001600160a01b03838116602483015290911690819063043788819060440160206040518083038186803b15801561316a57600080fd5b505afa15801561317e573d6000803e3d6000fd5b505050506040513d601f19601f820116820180604052508101906131a2919061415b565b8061321f575060405163096a867560e31b81523360048201526001600160a01b03821690634b5433a89060240160206040518083038186803b1580156131e757600080fd5b505afa1580156131fb573d6000803e3d6000fd5b505050506040513d601f19601f8201168201806040525081019061321f919061415b565b1561336e576040516310982e1360e21b81523360048201526000906001600160a01b03831690634260b84c9060240160206040518083038186803b15801561326657600080fd5b505afa15801561327a573d6000803e3d6000fd5b505050506040513d601f19601f8201168201806040525081019061329e9190614068565b604051633ce3f59160e21b81523460048201529091506000906001600160a01b0384169063f38fd6449060240160206040518083038186803b1580156132e357600080fd5b505afa1580156132f7573d6000803e3d6000fd5b505050506040513d601f19601f8201168201806040525081019061331b91906142a9565b6001600160a01b038316600090815260036020526040812080549293508392909190613348908490614716565b9250508190555080600460008282546133619190614716565b909155506111ce92505050565b6001600160a01b038216156111ce57336001600160a01b03831614156133cb5760405162461bcd60e51b815260206004820152601260248201527131b0b7103737ba103932b332b91039b2b63360711b6044820152606401610a4f565b6040516001600160a01b038316602482015260009060440160408051601f198184030181529181526020820180516001600160e01b03166311ccd9ef60e31b179052600254905191925060009182916001600160a01b03169061342f9085906143a4565b6000604051808303816000865af19150503d806000811461346c576040519150601f19603f3d011682016040523d82523d6000602084013e613471565b606091505b5091509150816134dc5760405162461bcd60e51b815260206004820152603060248201527f6661696c656420746f2072656665722074686973206164647265737320746f2060448201526f34ba39903732bb903932b332b93932b960811b6064820152608401610a4f565b5050505050565b600081815260056020526040812034918460018111156135055761350561481e565b14156135a75781816001015461351b9190614716565b600182810191909155600084815260066020908152604080832033808552908352818420805460ff19168155808601889055600784528285208054968701815585529383902090940187905560095490518681529293909290917f438122d8cff518d18388099a5181f0d17a12b4f1b55faedf6e4a6acee0060c1291015b60405180910390a350611d2d565b60018460018111156135bb576135bb61481e565b141561364d578181600201546135d19190614716565b6002820155600083815260066020908152604080832033808552908352818420805460ff1916600190811782558082018890556007855283862080549182018155865294849020909401879055905185815286927f0d8c1fe3e67ab767116a81f122b83c2557a8c2564019cb7c4f83de1aeb1f1f0d9101613599565b60405162461bcd60e51b815260206004820152604c60248201527f756e726561636861626c6520636f646520726561636865643b2074686973207360448201527f686f756c64206e6576657220626520726561636861626c6520696e206e6f726d60648201526b30b61037b832b930ba34b7b760a11b608482015260a401610a4f565b60008381526005602052604080822060078101805461ffff60a01b1916600160a81b8715150260ff60a01b191617600160a01b861515021790559051909185917f1316afc2a7dc68d55247ceedbef28ffd97f61bafc159c949278f4b934d448c7b9190a250505050565b6000826001600160a01b03166159d883604051600060405180830381858888f193505050503d806000811461378b576040519150601f19603f3d011682016040523d82523d6000602084013e613790565b606091505b5050905080610e7a5760405162461bcd60e51b815260206004820152600f60248201526e151c985b9cd9995c8811985a5b1959608a1b6044820152606401610a4f565b600081815260056020526040902060078101805463ffffffff19164263ffffffff811691909117909155600e5461380991614716565b60078201805463ffffffff92909216600160201b0267ffffffff0000000019909216919091179055600e5461383f906002614750565b6138499042614716565b60078201805463ffffffff92909216600160401b026bffffffff00000000000000001990921691909117905581815560405182907f939f42374aa9bf1d8d8cd56d8a9110cb040cd8dfeae44080c6fcf2645e51b45290600090a25050565b60008181526005602052604081206007015463ffffffff16158015906138ea5750600082815260056020526040902060070154600160201b900463ffffffff1615155b801561390c575060008281526005602052604090206007015463ffffffff1642115b8015611011575050600090815260056020526040902060070154600160201b900463ffffffff16421090565b81156139af57600954600090815260056020526040812060018101805491928592613964908490614716565b90915550506009805460009081526006602090815260408083203084528252808320805460ff1916815560019081018890556007835290832093548454918201855593835291200155505b8015613a29576009546000908152600560205260408120600281018054919284926139db908490614716565b90915550506009805460009081526006602090815260408083203084528252808320805460ff1916600190811782559081018790556007835290832093548454918201855593835291200155505b600954604080518481526020810184905230917feea8aefcf592555e97b5be0c583e19489f03f9483fe00fbc2e37f7cc4c62a78f910160405180910390a35050565b600054600160a01b900460ff1615613a955760405162461bcd60e51b8152600401610a4f90614569565b6000805460ff60a01b1916600160a01b1790557f81990fd9a5c552b8e3677917d8a03c07678f0d2cb68f88b634aca2022e9bd19f613ad03390565b6040516001600160a01b03909116815260200160405180910390a1565b600054600160a01b900460ff16613b3d5760405162461bcd60e51b815260206004820152601460248201527314185d5cd8589b194e881b9bdd081c185d5cd95960621b6044820152606401610a4f565b6000805460ff60a01b191690557f5b65b0c1363b3003db9bcc5e1fd8805a6d6bf5bf6dc9d3431ee4494cd7d1176633613ad0565b60008381526005602081815260409283902091820185905560078201805463ffffffff60601b1916600160601b63ffffffff871690810291909117909155835186815291820152909185917f2e2e80cc5b82ece2765903b36e187646b5d0552fcfe54b4a38c36c4f6c94a63291015b60405180910390a250505050565b600083815260056020526040908190206006810184905560078101805460ff60a01b1963ffffffff8616600160801b021664ffffffffff60801b1990911617600160a01b179055905184907f53fa74b56c70e8a63302787d6f01b0d300320be87f8c367f37a8cce433bc14bb90613be0908690869091825263ffffffff16602082015260400190565b600081815260056020526040902060030154158015613ca55750600081815260056020526040902060040154155b613ce65760405162461bcd60e51b815260206004820152601260248201527114995dd85c991cc818d85b18dd5b185d195960721b6044820152606401610a4f565b60008181526005602052604081206002810154600182015491929182918291613d0f9190614716565b9050836005015484600601541315613d4957836001015492506064600d5482613d389190614750565b613d42919061472e565b9150613d79565b836005015484600601541215613d7057836002015492506064600d5482613d389190614750565b60009250600091505b6003840183905560048401829055604080518481526020810184905286917fbf435c36ecef852914f1b871bbd6afcd79dd1d2311fb9b824711cbe7345bdaed910160405180910390a25050505050565b60025460405163096a867560e31b81523360048201526001600160a01b03909116908190634b5433a89060240160206040518083038186803b158015613e0e57600080fd5b505afa158015613e22573d6000803e3d6000fd5b505050506040513d601f19601f82011682018060405250810190613e46919061415b565b15611e88576040516310982e1360e21b81523360048201526000906001600160a01b03831690634260b84c9060240160206040518083038186803b158015613e8d57600080fd5b505afa158015613ea1573d6000803e3d6000fd5b505050506040513d601f19601f82011682018060405250810190613ec59190614068565b604051633ce3f59160e21b81523460048201529091506000906001600160a01b0384169063f38fd6449060240160206040518083038186803b158015613f0a57600080fd5b505afa158015613f1e573d6000803e3d6000fd5b505050506040513d601f19601f82011682018060405250810190613f4291906142a9565b6001600160a01b038316600090815260036020526040812080549293508392909190613f6f908490614716565b925050819055508060046000828254613f889190614716565b9091555050505050565b828054613f9e906147b2565b90600052602060002090601f016020900481019282613fc05760008555614006565b82601f10613fd957805160ff1916838001178555614006565b82800160010185558215614006579182015b82811115614006578251825591602001919060010190613feb565b50614012929150614016565b5090565b5b808211156140125760008155600101614017565b803563ffffffff8116811461403f57600080fd5b919050565b60006020828403121561405657600080fd5b813561406181614860565b9392505050565b60006020828403121561407a57600080fd5b815161406181614860565b6000806040838503121561409857600080fd5b82356140a381614860565b946020939093013593505050565b6000806000606084860312156140c657600080fd5b83356140d181614860565b95602085013595506040909401359392505050565b600080602083850312156140f957600080fd5b823567ffffffffffffffff8082111561411157600080fd5b818501915085601f83011261412557600080fd5b81358181111561413457600080fd5b8660208260051b850101111561414957600080fd5b60209290920196919550909350505050565b60006020828403121561416d57600080fd5b815161406181614875565b6000806040838503121561418b57600080fd5b8235915061419b6020840161402b565b90509250929050565b600080600080608085870312156141ba57600080fd5b843593506141ca6020860161402b565b93969395505050506040820135916060013590565b6000602082840312156141f157600080fd5b813567ffffffffffffffff8082111561420957600080fd5b818401915084601f83011261421d57600080fd5b81358181111561422f5761422f61484a565b604051601f8201601f19908116603f011681019083821181831017156142575761425761484a565b8160405282815287602084870101111561427057600080fd5b826020860160208301376000928101602001929092525095945050505050565b6000602082840312156142a257600080fd5b5035919050565b6000602082840312156142bb57600080fd5b5051919050565b600080604083850312156142d557600080fd5b8235915060208301356142e781614860565b809150509250929050565b60008060006060848603121561430757600080fd5b83359250602084013561431981614875565b9150604084013561432981614875565b809150509250925092565b6000806040838503121561434757600080fd5b50508035926020909101359150565b6002811061437457634e487b7160e01b600052602160045260246000fd5b9052565b60008151808452614390816020860160208601614786565b601f01601f19169290920160200192915050565b600082516143b6818460208701614786565b9190910192915050565b60608082528451828201819052600091906020906080850190828901855b828110156143fa578151845292840192908401906001016143de565b5050508481038286015286518082528783019183019060005b8181101561444c578351614428848251614356565b80860151848701526040908101511515908401529284019291850191600101614413565b505080945050505050826040830152949350505050565b87151581528615156020820152851515604082015284606082015283608082015260e060a0820152600061449a60e0830185614378565b90508260c083015298975050505050505050565b606081016144bc8286614356565b8360208301528215156040830152949350505050565b6020815260006140616020830184614378565b6020808252601a908201527f70726f787920636f6e7472616374206e6f7420616c6c6f776564000000000000604082015260600190565b6020808252602d908201527f4f6e6c79206f776e6572206f72206f70657261746f722063616e2063616c6c2060408201526c3a3434b990333ab731ba34b7b760991b606082015260800190565b60208082526010908201526f14185d5cd8589b194e881c185d5cd95960821b604082015260600190565b6020808252818101527f4f776e61626c653a2063616c6c6572206973206e6f7420746865206f776e6572604082015260600190565b60208082526036908201527f436f6e74726163742062616c616e6365206d7573742062652067726561746572604082015275207468616e20686f7573652062657420746f74616c7360501b606082015260800190565b60208082526014908201527318dbdb9d1c9858dd081b9bdd08185b1b1bddd95960621b604082015260600190565b6020808252601f908201527f5265656e7472616e637947756172643a207265656e7472616e742063616c6c00604082015260600190565b60006101c0820190508f82528e60208301528d60408301528c60608301528b60808301528a60a08301528960c083015263ffffffff808a1660e0840152808916610100840152808816610120840152506146e661014083018763ffffffff169052565b63ffffffff9490941661016082015291151561018083015215156101a0909101529b9a5050505050505050505050565b6000821982111561472957614729614808565b500190565b60008261474b57634e487b7160e01b600052601260045260246000fd5b500490565b600081600019048311821515161561476a5761476a614808565b500290565b60008282101561478157614781614808565b500390565b60005b838110156147a1578181015183820152602001614789565b83811115611d2d5750506000910152565b600181811c908216806147c657607f821691505b602082108114156147e757634e487b7160e01b600052602260045260246000fd5b50919050565b600060001982141561480157614801614808565b5060010190565b634e487b7160e01b600052601160045260246000fd5b634e487b7160e01b600052602160045260246000fd5b634e487b7160e01b600052603260045260246000fd5b634e487b7160e01b600052604160045260246000fd5b6001600160a01b0381168114611e8857600080fd5b8015158114611e8857600080fdfea264697066735822122069a52474a96bcdbf9eaeb1aa5da0240551722e9cb77bab38f40f97d2da06b2d264736f6c63430008070033",
  "immutableReferences": {},
  "source": "// V1.2 testnet contract for DogeBets.\n// Originally forked from CandleGenie. That originally forked it from PancakeSwap.\n// Modified to suit our needs.\n\n// SPDX-License-Identifier: MIT\n\nimport './ReferralComponent.sol';\nimport './Extras.sol';\n\n\npragma solidity ^0.8.7;\n\n\n//PREDICTIONS\ncontract DogeBetsPredictionV1 is Ownable, Pausable, ReentrancyGuard, ExtraModifiers, EtherTransfer, ReferralComponent {\n    struct Round {\n        uint256 epoch;\n        uint256 bullAmount;\n        uint256 bearAmount;\n        uint256 rewardBaseCalAmount;\n        uint256 rewardAmount;\n        int256 lockPrice;\n        int256 closePrice;\n        uint32 startTimestamp;\n        uint32 lockTimestamp;\n        uint32 closeTimestamp;\n        uint32 lockPriceTimestamp;\n        uint32 closePriceTimestamp;\n        bool closed;\n        bool canceled;\n    }\n\n    enum Position {Bull, Bear}\n\n    struct BetInfo {\n        Position position;\n        uint256 amount;\n        bool claimed; // default false\n    }\n    \n    mapping(uint256 => Round) public Rounds;\n    mapping(uint256 => mapping(address => BetInfo)) public Bets;\n    mapping(address => uint256[]) public UserBets;\n    mapping(address=>bool) internal _Blacklist;\n        \n    uint256 public currentEpoch;\n        \n    address public operatorAddress;\n    string public priceSource;\n\n    // Defaults\n    uint256 internal _minHouseBetRatio = 90;        // houseBetBear/houseBetBull min value\n    uint256 public rewardRate = 95;                 // Percents\n    uint256 constant public minimumRewardRate = 90; // Minimum reward rate 90%\n    uint256 public roundInterval = 300;             // In seconds\n    uint256 public roundBuffer = 30;                // In seconds\n    uint256 public minBetAmount = 1000000000000000;\n\n    bool public startedOnce = false;\n    bool public lockedOnce = false;\n\n    event BetBear(address indexed sender, uint256 indexed epoch, uint256 amount);\n    event BetBull(address indexed sender, uint256 indexed epoch, uint256 amount);\n    event HouseBetMade(address indexed sender, uint256 indexed epoch, uint256 bullAmount, uint256 bearAmount);\n    event LockRound(uint256 indexed epoch, int256 price, uint32 timestamp);\n    event EndRound(uint256 indexed epoch, int256 price, uint32 timestamp);\n    event Claim(address indexed sender, uint256 indexed epoch, uint256 amount);\n    \n    event StartRound(uint256 indexed epoch);\n    event CancelRound(uint256 indexed epoch);\n    event ContractPaused(uint256 indexed epoch);\n    event ContractUnpaused(uint256 indexed epoch);\n          \n    event RewardsCalculated(\n        uint256 indexed epoch,\n        uint256 rewardBaseCalAmount,\n        uint256 rewardAmount\n    );\n\n    event InjectFunds(address indexed sender);\n    event MinBetAmountUpdated(uint256 indexed epoch, uint256 minBetAmount);\n    event BufferAndIntervalSecondsUpdated(uint256 roundBuffer, uint256 roundInterval);\n    event HouseBetMinRatioUpdated(uint256 minRatioPercents);\n    event RewardRateUpdated(uint256 rewardRate);\n    event NewPriceSource(string priceSource);\n\n    constructor(address newOperatorAddress, string memory newPriceSource) {\n        operatorAddress = newOperatorAddress;\n        priceSource = newPriceSource;\n    }\n\n    modifier onlyOwnerOrOperator() {\n        require(msg.sender == _owner || msg.sender == operatorAddress, \"Only owner or operator can call this function\");\n        _;\n    }\n\n    // INTERNAL FUNCTIONS ---------------->\n    \n    function _safeStartRound(uint256 epoch) internal \n    {\n        Round storage round = Rounds[epoch];\n        round.startTimestamp = uint32(block.timestamp);\n        round.lockTimestamp  = uint32(block.timestamp + roundInterval);\n        round.closeTimestamp = uint32(block.timestamp + (2 * roundInterval));\n        round.epoch = epoch;\n\n        emit StartRound(epoch);\n    }\n\n    function _safeLockRound(uint256 epoch, int256 price, uint32 timestamp) internal \n    { \n        Round storage round = Rounds[epoch];\n        round.lockPrice = price;\n        round.lockPriceTimestamp = timestamp;\n\n        emit LockRound(epoch, price, timestamp);\n    }\n\n\n    function _safeEndRound(uint256 epoch, int256 price, uint32 timestamp) internal \n    { \n        Round storage round = Rounds[epoch];\n        round.closePrice = price;\n        round.closePriceTimestamp = timestamp;\n        round.closed = true;\n        \n        emit EndRound(epoch, price, timestamp);\n    }\n\n    function _calculateRewards(uint256 epoch) internal \n    {\n        require(Rounds[epoch].rewardBaseCalAmount == 0 && Rounds[epoch].rewardAmount == 0, \"Rewards calculated\");\n        Round storage round = Rounds[epoch];\n        uint256 rewardBaseCalAmount;\n        uint256 rewardAmount;\n\n        uint256 totalAmount = round.bullAmount + round.bearAmount;\n        \n        // Bull wins\n        if (round.closePrice > round.lockPrice) \n        {\n            rewardBaseCalAmount = round.bullAmount;\n            rewardAmount = totalAmount * rewardRate / 100;\n        }\n        // Bear wins\n        else if (round.closePrice < round.lockPrice) \n        {\n            rewardBaseCalAmount = round.bearAmount;\n            rewardAmount = totalAmount * rewardRate / 100;\n\n        }\n        // House wins\n        else \n        {\n            rewardBaseCalAmount = 0;\n            rewardAmount = 0;\n        }\n        round.rewardBaseCalAmount = rewardBaseCalAmount;\n        round.rewardAmount = rewardAmount;\n\n        emit RewardsCalculated(epoch, rewardBaseCalAmount, rewardAmount);\n    }\n\n    function _safeCancelRound(uint256 epoch, bool canceled, bool closed) internal \n    {\n        Round storage round = Rounds[epoch];\n        round.canceled = canceled;\n        round.closed = closed;\n        emit CancelRound(epoch);\n    }\n\n    function _safeHouseBet(uint256 bullAmount, uint256 bearAmount) internal\n    {\n        // Putting Bull Bet\n        if (bullAmount > 0)\n        {\n            // Update round data\n            Round storage round = Rounds[currentEpoch];\n            round.bullAmount += bullAmount;\n    \n            // Update user data\n            BetInfo storage betInfo = Bets[currentEpoch][address(this)];\n            betInfo.position = Position.Bull;\n            betInfo.amount = bullAmount;\n            UserBets[address(this)].push(currentEpoch);\n        }\n\n        // Putting Bear Bet\n        if (bearAmount > 0)\n        {\n            // Update round data\n            Round storage round = Rounds[currentEpoch];\n            round.bearAmount += bearAmount;\n    \n            // Update user data\n            BetInfo storage betInfo = Bets[currentEpoch][address(this)];\n            betInfo.position = Position.Bear;\n            betInfo.amount = bearAmount;\n            UserBets[address(this)].push(currentEpoch);\n        }\n        \n        emit HouseBetMade(address(this), currentEpoch, bullAmount, bearAmount);\n    }\n  \n\n    function _bettable(uint256 epoch) internal view returns (bool) \n    {\n        return\n            Rounds[epoch].startTimestamp != 0 &&\n            Rounds[epoch].lockTimestamp != 0 &&\n            block.timestamp > Rounds[epoch].startTimestamp &&\n            block.timestamp < Rounds[epoch].lockTimestamp;\n    }\n    \n    // EXTERNAL FUNCTIONS ---------------->\n    \n    function SetOperator(address _operatorAddress) external onlyOwner \n    {\n        require(_operatorAddress != address(0), \"Cannot be zero address\");\n        operatorAddress = _operatorAddress;\n    }\n\n    function FundsInject() external payable onlyOwner \n    {\n        emit InjectFunds(msg.sender);\n    }\n    \n    function FundsExtract(uint256 value) external onlyOwner \n    {\n        _safeTransferBNB(_owner,  value);\n    }\n    \n    function RewardUser(address user, uint256 value) external onlyOwner \n    {\n        _safeTransferBNB(user,  value);\n    }\n    \n    function BlackListInsert(address userAddress) public onlyOwner {\n        require(!_Blacklist[userAddress], \"Address already blacklisted\");\n        _Blacklist[userAddress] = true;\n    }\n    \n    function BlackListRemove(address userAddress) public onlyOwner {\n        require(_Blacklist[userAddress], \"Address is not blacklisted\");\n        _Blacklist[userAddress] = false;\n    }\n   \n    function ChangePriceSource(string memory newPriceSource) external onlyOwner \n    {\n        require(bytes(newPriceSource).length > 0, \"Price source can not be empty\");\n        \n        priceSource = newPriceSource;\n        emit NewPriceSource(newPriceSource);\n    }\n\n    function HouseBet(uint256 bullAmount, uint256 bearAmount) external onlyOwnerOrOperator whenNotPaused notContract \n    {\n        require(_bettable(currentEpoch), \"Round not bettable\");\n        require(address(this).balance >= bullAmount + bearAmount, \"Contract balance must be greater than house bet totals\");\n\n        _safeHouseBet(bullAmount, bearAmount);\n    } \n\n    function Pause() public onlyOwnerOrOperator whenNotPaused \n    {\n        _Pause();\n\n        emit ContractPaused(currentEpoch);\n    }\n\n    function Unpause() public onlyOwnerOrOperator whenPaused \n    {\n        startedOnce = false;\n        lockedOnce = false;\n        _Unpause();\n\n        emit ContractUnpaused(currentEpoch);\n    }\n\n    function RoundStart() external onlyOwnerOrOperator whenNotPaused \n    {\n        require(!startedOnce, \"Can only run startRound once\");\n\n        currentEpoch = currentEpoch + 1;\n        _safeStartRound(currentEpoch);\n        startedOnce = true;\n    }\n\n\n    function RoundLock(int256 price, uint32 timestamp) external onlyOwnerOrOperator whenNotPaused \n    {\n        require(startedOnce, \"Can only run after startRound is triggered\");\n        require(!lockedOnce, \"Can only run lockRound once\");\n\n        require(Rounds[currentEpoch].startTimestamp != 0, \"Can only lock round after round has started\");\n        require(block.timestamp >= Rounds[currentEpoch].lockTimestamp, \"Can only lock round after lock timestamp\");\n        require(block.timestamp <= Rounds[currentEpoch].closeTimestamp, \"Can only lock before end timestamp\");\n\n        _safeLockRound(currentEpoch, price, timestamp);\n\n        currentEpoch = currentEpoch + 1;\n        _safeStartRound(currentEpoch);\n        lockedOnce = true;\n    }\n    \n    function Execute(int256 price, uint32 timestamp, uint256 betOnBull, uint256 betOnBear) external onlyOwnerOrOperator whenNotPaused \n    {\n        require(startedOnce && lockedOnce, \"Can only execute after StartRound and LockRound is triggered\");\n        require(Rounds[currentEpoch - 2].closeTimestamp != 0, \"Can only execute after round n-2 has ended(closeTimestamp != 0)\");\n        require(block.timestamp >= Rounds[currentEpoch - 2].closeTimestamp, \"Can only start new round after round n-2 endBlock\");\n \n        // LockRound conditions\n        /* deprecated, because there is no reason to check for it this late into execution;\n         it's guaranteed to be there, since we've definitely started this round during previous execution\n        //require(Rounds[currentEpoch].startTimestamp != 0, \"Can only lock round after round has started\"); */\n        require(block.timestamp >= Rounds[currentEpoch].lockTimestamp, \"Too soon! Can only execute after current round .lockTimestamp\");\n        require(block.timestamp <= Rounds[currentEpoch].closeTimestamp, \"Too late! Can only execute before current round .closeTimestamp\");\n\n        // EndRound conditions\n        /* deprecated, because there is no reason to check for it this late into execution;\n         it's guaranteed to be there, since we've definitely started this round during pre-previous execution\n         and if we definitely started it, then this timestamp is definitely already set\n        //require(Rounds[currentEpoch - 1].lockTimestamp != 0, \"Can only end round after round has locked\"); */\n        /* deprecated, because it is exactly the same figure as Rounds[currentEpoch].lockTimestamp\n        //require(block.timestamp >= Rounds[currentEpoch - 1].closeTimestamp, \"Can only execute after previous round close timestamp\"); */\n\n        // HouseBet conditions\n        require(address(this).balance >= betOnBull + betOnBear, \"Contract balance must be greater than house bet totals\");\n        require(HouseBetsWithinLimits(betOnBull, betOnBear), \"Difference between house bets is too great\");\n\n        _safeLockRound(currentEpoch, price, timestamp);                                     \n        _safeEndRound(currentEpoch - 1, price, timestamp);                                  \n        \n        _calculateRewards(currentEpoch - 1);                                                            \n      \n        _safeStartRound(currentEpoch + 1);                                                                 \n        currentEpoch = currentEpoch + 1; // to reflect the fact that we have added a new round\n\n        _safeHouseBet(betOnBull, betOnBear);\n    }\n\n\n    function RoundCancel(uint256 epoch, bool canceled, bool closed) external onlyOwnerOrOperator\n    {\n        _safeCancelRound(epoch, canceled, closed);\n    }\n\n\n    function SetRoundBufferAndInterval(uint256 roundBufferSeconds, uint256 roundIntervalSeconds) external onlyOwnerOrOperator\n    {\n        require(roundBufferSeconds < roundIntervalSeconds, \"roundBufferSeconds must be less than roundIntervalSeconds\");\n        roundBuffer = roundBufferSeconds;\n        roundInterval = roundIntervalSeconds;\n        emit BufferAndIntervalSecondsUpdated(roundBufferSeconds, roundIntervalSeconds);\n    }\n\n    function SetHouseBetMinRatio(uint256 minBearToBullRatioPercents) external onlyOwner \n    {\n        require(0 < minBearToBullRatioPercents && minBearToBullRatioPercents < 100, \"Supplied value is out-of-bounds: 0 < minBearToBullRatioPercents < 100\");\n\n        _minHouseBetRatio = minBearToBullRatioPercents;\n        emit HouseBetMinRatioUpdated(_minHouseBetRatio);\n    }\n\n    function SetRewardRate(uint256 newRewardRate) external onlyOwner \n    {\n        require(newRewardRate >= minimumRewardRate, \"Reward rate can't be lower than minimum reward rate\");\n        rewardRate = newRewardRate;\n        emit RewardRateUpdated(rewardRate);\n    }\n\n    function SetMinBetAmount(uint256 newMinBetAmount) external onlyOwner \n    {\n        minBetAmount = newMinBetAmount;\n        emit MinBetAmountUpdated(currentEpoch, minBetAmount);\n    }\n\n\n    function _CheckBetRequirements(uint epoch) internal {\n        require(epoch == currentEpoch, \"Bet is too early/late\");\n        require(_bettable(epoch), \"Round not bettable. You might be too early/too late\");\n        require(msg.value >= minBetAmount, \"Bet amount must be greater than minBetAmount\");\n        require(Bets[epoch][msg.sender].amount == 0, \"Can only bet once per round\");\n        require(!_Blacklist[msg.sender], \"Blacklisted! Are you a bot ?\");\n    }\n\n    function _HandleReferralsSpecial(address newReferrer) internal {\n        IReferrals refs = IReferrals(referralsContract); \n        if (refs.AreAlreadyConnected(msg.sender, newReferrer) || refs.IsAlreadyReferred(msg.sender)) {\n            address referrer = refs.GetReferrer(msg.sender);\n            uint referralReward = refs.CalculateReferralReward(msg.value);\n            _referralFunds[referrer] += referralReward;\n            _totalReferralProgramFunds += referralReward;\n        }\n        else if(newReferrer != address(0)) {\n            require(msg.sender != newReferrer, 'can not refer self');\n            bytes memory payload = abi.encodeWithSignature(\"ReferTo(address)\", newReferrer);\n            (bool callWasSuccessful, bytes memory returnData) = address(referralsContract).call(payload);\n            require(callWasSuccessful, 'failed to refer this address to its new referrer');\n        }\n    }\n\n    function _HandleReferralsBasic() internal {\n        IReferrals refs = IReferrals(referralsContract); \n        if (refs.IsAlreadyReferred(msg.sender)) {\n            address referrer = refs.GetReferrer(msg.sender);\n            uint referralReward = refs.CalculateReferralReward(msg.value);\n            _referralFunds[referrer] += referralReward;\n            _totalReferralProgramFunds += referralReward;\n        }\n    }\n\n    function _SafeBet(Position chosenPosition, uint epoch) internal {\n        uint amount = msg.value;\n        Round storage round = Rounds[epoch];\n\n        if (chosenPosition == Position.Bull) {\n            round.bullAmount = round.bullAmount + amount;\n            BetInfo storage betInfo = Bets[epoch][msg.sender];\n            betInfo.position = Position.Bull;\n            betInfo.amount = amount;\n            UserBets[msg.sender].push(epoch);\n            emit BetBull(msg.sender, currentEpoch, amount);\n        }\n        else if (chosenPosition == Position.Bear) {\n            round.bearAmount = round.bearAmount + amount;\n            BetInfo storage betInfo = Bets[epoch][msg.sender];\n            betInfo.position = Position.Bear;\n            betInfo.amount = amount;\n            UserBets[msg.sender].push(epoch);\n            emit BetBear(msg.sender, epoch, amount);\n        }\n        else {\n            revert('unreachable code reached; this should never be reachable in normal operation');\n        }\n\n    }\n\n\n    function user_BetBullSpecial(uint epoch, address newReferrer) external payable whenNotPaused nonReentrant notContract {\n        _CheckBetRequirements(epoch);\n        _HandleReferralsSpecial(newReferrer);\n        _SafeBet(Position.Bull, epoch);\n    }\n\n    function user_BetBull(uint epoch) external payable whenNotPaused nonReentrant notContract {\n        _CheckBetRequirements(epoch);\n        _HandleReferralsBasic();\n        _SafeBet(Position.Bull, epoch);\n    }\n\n\n    function user_BetBearSpecial(uint epoch, address newReferrer) external payable whenNotPaused nonReentrant notContract {\n        _CheckBetRequirements(epoch);\n        _HandleReferralsSpecial(newReferrer);\n        _SafeBet(Position.Bear, epoch);\n    }\n    \n    function user_BetBear(uint epoch) external payable whenNotPaused nonReentrant notContract {\n        _CheckBetRequirements(epoch);\n        _HandleReferralsBasic();\n        _SafeBet(Position.Bear, epoch);\n    }\n\n\n    function user_Claim(uint256[] calldata epochs) external nonReentrant notContract \n    {\n        uint256 reward; // Initializes reward\n\n        for (uint256 i = 0; i < epochs.length; i++) {\n            require(Rounds[epochs[i]].startTimestamp != 0, \"Round has not started\");\n            require(block.timestamp > Rounds[epochs[i]].closeTimestamp, \"Round has not ended\");\n\n            uint256 addedReward = 0;\n\n            // Round valid, claim rewards\n            if (Rounds[epochs[i]].closed) {\n                require(Claimable(epochs[i], msg.sender), \"Not eligible to claim\");\n                Round memory round = Rounds[epochs[i]];\n                addedReward = (Bets[epochs[i]][msg.sender].amount * round.rewardAmount) / round.rewardBaseCalAmount;\n            }\n            // Round invalid, refund bet amount\n            else {\n                require(Refundable(epochs[i], msg.sender), \"Not eligible for refund\");\n                addedReward = Bets[epochs[i]][msg.sender].amount;\n            }\n\n            Bets[epochs[i]][msg.sender].claimed = true;\n            reward += addedReward;\n\n            emit Claim(msg.sender, epochs[i], addedReward);\n        }\n\n        if (reward > 0) \n        {\n            _safeTransferBNB(address(msg.sender), reward);\n        }\n        \n    }\n    \n    function GetUserRounds(address user, uint256 cursor, uint256 size) external view returns (uint256[] memory, BetInfo[] memory, uint256)\n    {\n        uint256 length = size;\n\n        if (length > UserBets[user].length - cursor) \n        {\n            length = UserBets[user].length - cursor;\n        }\n\n        uint256[] memory values = new uint256[](length);\n        BetInfo[] memory betInfo = new BetInfo[](length);\n\n        for (uint256 i = 0; i < length; i++) \n        {\n            values[i] = UserBets[user][cursor + i];\n            betInfo[i] = Bets[values[i]][user];\n        }\n\n        return (values, betInfo, cursor + length);\n    }\n    \n    function GetUserRoundsLength(address user) external view returns (uint256) {\n        return UserBets[user].length;\n    }\n\n\n    function Claimable(uint256 epoch, address user) public view returns (bool) \n    {\n        BetInfo memory betInfo = Bets[epoch][user];\n        Round memory round = Rounds[epoch];\n        \n        if (round.lockPrice == round.closePrice) \n        {\n            return false;\n        }\n        \n        return round.closed && !betInfo.claimed && betInfo.amount != 0 && ((round.closePrice > round.lockPrice \n        && betInfo.position == Position.Bull) || (round.closePrice < round.lockPrice && betInfo.position == Position.Bear));\n    }\n    \n\n    function Refundable(uint256 epoch, address user) public view returns (bool) \n    {\n        BetInfo memory betInfo = Bets[epoch][user];\n        Round memory round = Rounds[epoch];\n        \n        return !round.closed && !betInfo.claimed && block.timestamp > round.closeTimestamp + roundBuffer && betInfo.amount != 0;\n    }\n\n\n    function HouseBetsWithinLimits(uint256 betBull, uint256 betBear) public view returns (bool)\n    {\n        uint256 inverseRatio = (100 * 100) / _minHouseBetRatio;\n        uint256 currentRatio = (betBull * 100) / betBear;\n        return (_minHouseBetRatio <= currentRatio && currentRatio <= inverseRatio);\n    }\n\n\n    function currentSettings() public view returns (bool, bool, bool, uint256, uint256, string memory, uint256) \n    {\n        return (IsPaused(), startedOnce, lockedOnce, roundInterval, roundBuffer, priceSource, _minHouseBetRatio);\n    }\n\n\n    function currentBlockNumber() public view returns (uint256) \n    {\n        return block.number;\n    }\n    \n    function currentBlockTimestamp() public view returns (uint256) \n    {\n        return block.timestamp;\n    }\n    \n}\n\n\n\ninterface IReferrals {\n    function IsAlreadyReferred(address user) external view returns (bool);\n    function AreAlreadyConnected(address user1, address user2) external view returns (bool);\n    function GetReferrer(address referredUser) external view returns (address);\n    function CalculateReferralReward(uint betSize) external view returns (uint);\n    function ReferTo(address referrer) external;\n}",
  "sourcePath": "C:\\Dextop\\testing 3\\contracts\\Prediction.sol",
  "compiler": {
    "name": "solc",
    "version": "0.8.7+commit.e28d00a7.Emscripten.clang"
  },
  "schemaVersion": "3.4.6",
  "updatedAt": "2022-03-18T17:51:50.524Z",
  "devdoc": {
    "kind": "dev",
    "methods": {},
    "version": 1
  },
  "userdoc": {
    "kind": "user",
    "methods": {},
    "version": 1
  }
}