{
  "contractName": "ReferralData",
  "abi": [
    {
      "inputs": [
        {
          "internalType": "address[]",
          "name": "predictionsContracts",
          "type": "address[]"
        }
      ],
      "stateMutability": "nonpayable",
      "type": "constructor"
    },
    {
      "anonymous": false,
      "inputs": [
        {
          "indexed": true,
          "internalType": "address",
          "name": "previousOwner",
          "type": "address"
        },
        {
          "indexed": true,
          "internalType": "address",
          "name": "newOwner",
          "type": "address"
        }
      ],
      "name": "OwnershipTransferred",
      "type": "event"
    },
    {
      "inputs": [],
      "name": "OwnershipRenounce",
      "outputs": [],
      "stateMutability": "nonpayable",
      "type": "function"
    },
    {
      "inputs": [
        {
          "internalType": "address",
          "name": "newOwner",
          "type": "address"
        }
      ],
      "name": "OwnershipTransfer",
      "outputs": [],
      "stateMutability": "nonpayable",
      "type": "function"
    },
    {
      "inputs": [],
      "name": "maxReferralFee",
      "outputs": [
        {
          "internalType": "uint256",
          "name": "",
          "type": "uint256"
        }
      ],
      "stateMutability": "view",
      "type": "function"
    },
    {
      "inputs": [],
      "name": "owner",
      "outputs": [
        {
          "internalType": "address",
          "name": "",
          "type": "address"
        }
      ],
      "stateMutability": "view",
      "type": "function"
    },
    {
      "inputs": [],
      "name": "referralFee",
      "outputs": [
        {
          "internalType": "uint256",
          "name": "",
          "type": "uint256"
        }
      ],
      "stateMutability": "view",
      "type": "function"
    },
    {
      "inputs": [
        {
          "internalType": "address",
          "name": "",
          "type": "address"
        },
        {
          "internalType": "uint256",
          "name": "",
          "type": "uint256"
        }
      ],
      "name": "referralMasterToSlaves",
      "outputs": [
        {
          "internalType": "address",
          "name": "",
          "type": "address"
        }
      ],
      "stateMutability": "view",
      "type": "function"
    },
    {
      "inputs": [
        {
          "internalType": "address",
          "name": "",
          "type": "address"
        }
      ],
      "name": "referralSlaveToMaster",
      "outputs": [
        {
          "internalType": "address",
          "name": "",
          "type": "address"
        }
      ],
      "stateMutability": "view",
      "type": "function"
    },
    {
      "inputs": [
        {
          "internalType": "uint256",
          "name": "newFeeInTenthOfPercent",
          "type": "uint256"
        }
      ],
      "name": "SetReferralFee",
      "outputs": [],
      "stateMutability": "nonpayable",
      "type": "function"
    },
    {
      "inputs": [],
      "name": "DisableReferralFee",
      "outputs": [],
      "stateMutability": "nonpayable",
      "type": "function"
    },
    {
      "inputs": [
        {
          "internalType": "address",
          "name": "contractAddress",
          "type": "address"
        }
      ],
      "name": "WhitelistContract",
      "outputs": [],
      "stateMutability": "nonpayable",
      "type": "function"
    },
    {
      "inputs": [
        {
          "internalType": "address",
          "name": "contractAddress",
          "type": "address"
        }
      ],
      "name": "IsWhitelisted",
      "outputs": [
        {
          "internalType": "bool",
          "name": "",
          "type": "bool"
        }
      ],
      "stateMutability": "view",
      "type": "function"
    },
    {
      "inputs": [
        {
          "internalType": "address",
          "name": "user1",
          "type": "address"
        },
        {
          "internalType": "address",
          "name": "user2",
          "type": "address"
        }
      ],
      "name": "AreAlreadyConnected",
      "outputs": [
        {
          "internalType": "bool",
          "name": "",
          "type": "bool"
        }
      ],
      "stateMutability": "view",
      "type": "function"
    },
    {
      "inputs": [
        {
          "internalType": "address",
          "name": "user",
          "type": "address"
        }
      ],
      "name": "IsAlreadyReferred",
      "outputs": [
        {
          "internalType": "bool",
          "name": "",
          "type": "bool"
        }
      ],
      "stateMutability": "view",
      "type": "function"
    },
    {
      "inputs": [
        {
          "internalType": "address",
          "name": "referredUser",
          "type": "address"
        }
      ],
      "name": "GetReferrer",
      "outputs": [
        {
          "internalType": "address",
          "name": "",
          "type": "address"
        }
      ],
      "stateMutability": "view",
      "type": "function"
    },
    {
      "inputs": [
        {
          "internalType": "uint256",
          "name": "betSize",
          "type": "uint256"
        }
      ],
      "name": "CalculateReferralReward",
      "outputs": [
        {
          "internalType": "uint256",
          "name": "",
          "type": "uint256"
        }
      ],
      "stateMutability": "view",
      "type": "function"
    },
    {
      "inputs": [
        {
          "internalType": "address",
          "name": "referrer",
          "type": "address"
        }
      ],
      "name": "ReferTo",
      "outputs": [],
      "stateMutability": "nonpayable",
      "type": "function"
    },
    {
      "inputs": [
        {
          "internalType": "address",
          "name": "user",
          "type": "address"
        }
      ],
      "name": "GetReferrals",
      "outputs": [
        {
          "internalType": "address[]",
          "name": "",
          "type": "address[]"
        }
      ],
      "stateMutability": "view",
      "type": "function"
    },
    {
      "inputs": [
        {
          "internalType": "address",
          "name": "user",
          "type": "address"
        },
        {
          "internalType": "address[]",
          "name": "walletsReferredByUser",
          "type": "address[]"
        }
      ],
      "name": "SetReferrals",
      "outputs": [],
      "stateMutability": "nonpayable",
      "type": "function"
    }
  ],
  "bytecode": "0x6080604052600a6001553480156200001657600080fd5b5060405162000f8d38038062000f8d83398101604081905262000039916200010e565b600080546001600160a01b031916339081178255604051909182917f8be0079c531659141344cd1fd0a4f28419497f9722a3daafe3b4186f6b6457e0908290a35060005b8151811015620000e957600160026000848481518110620000a257620000a262000211565b6020908102919091018101516001600160a01b03168252810191909152604001600020805460ff191691151591909117905580620000e081620001e7565b9150506200007d565b50506200023d565b80516001600160a01b03811681146200010957600080fd5b919050565b600060208083850312156200012257600080fd5b82516001600160401b03808211156200013a57600080fd5b818501915085601f8301126200014f57600080fd5b81518181111562000164576200016462000227565b8060051b604051601f19603f830116810181811085821117156200018c576200018c62000227565b604052828152858101935084860182860187018a1015620001ac57600080fd5b600095505b83861015620001da57620001c581620000f1565b855260019590950194938601938601620001b1565b5098975050505050505050565b60006000198214156200020a57634e487b7160e01b600052601160045260246000fd5b5060010190565b634e487b7160e01b600052603260045260246000fd5b634e487b7160e01b600052604160045260246000fd5b610d40806200024d6000396000f3fe608060405234801561001057600080fd5b50600436106101165760003560e01c80638da5cb5b116100a2578063c91181be11610071578063c91181be1461029d578063d12d7d3f146102b0578063dfc39691146102c3578063f38fd644146102d6578063fd5bab23146102e957600080fd5b80638da5cb5b1461025e5780638e66cf781461026f5780639027a0c514610282578063aad84be11461028a57600080fd5b80634260b84c116100e95780634260b84c1461019a5780634b5433a8146101de57806372521b161461020c57806384ae2bc614610235578063897072241461023e57600080fd5b8063043788811461011b5780631bd739f0146101435780632ae5d2f91461015857806340bf898b14610184575b600080fd5b61012e610129366004610b04565b6102f1565b60405190151581526020015b60405180910390f35b610156610151366004610be7565b610341565b005b61012e610166366004610ae9565b6001600160a01b031660009081526002602052604090205460ff1690565b61018c601981565b60405190815260200161013a565b6101c66101a8366004610ae9565b6001600160a01b039081166000908152600460205260409020541690565b6040516001600160a01b03909116815260200161013a565b61012e6101ec366004610ae9565b6001600160a01b0390811660009081526004602052604090205416151590565b6101c661021a366004610ae9565b6004602052600090815260409020546001600160a01b031681565b61018c60015481565b61025161024c366004610ae9565b610453565b60405161013a9190610c00565b6000546001600160a01b03166101c6565b61015661027d366004610ae9565b6104c9565b610156610690565b610156610298366004610b37565b6106c1565b6101566102ab366004610ae9565b61078f565b6101c66102be366004610bbd565b61089c565b6101566102d1366004610ae9565b6108d4565b61018c6102e4366004610be7565b6109be565b6101566109e1565b6001600160a01b0382811660009081526004602052604081205490918381169116148061033a57506001600160a01b038281166000908152600460205260409020548116908416145b9392505050565b6000546001600160a01b031633146103745760405162461bcd60e51b815260040161036b90610c4d565b60405180910390fd5b806103e75760405162461bcd60e51b815260206004820152603b60248201527f6665652063616e206e6f7420626520303b207573652044697361626c6552656660448201527f657272616c466565282920666f72207468697320696e73746561640000000000606482015260840161036b565b8060001080156103f8575060198111155b61044e5760405162461bcd60e51b815260206004820152602160248201527f6665652063616e206e6f7420657863656564206d6178526566657272616c46656044820152606560f81b606482015260840161036b565b600155565b6001600160a01b0381166000908152600360209081526040918290208054835181840281018401909452808452606093928301828280156104bd57602002820191906000526020600020905b81546001600160a01b0316815260019091019060200180831161049f575b50505050509050919050565b333b6105175760405162461bcd60e51b815260206004820152601c60248201527f6f6e6c7920636f6e7472616374732063616e2063616c6c207468697300000000604482015260640161036b565b3360009081526002602052604090205460ff16151560011461056c5760405162461bcd60e51b815260206004820152600e60248201526d1b9bdd08185d5d1a1bdc9a5e995960921b604482015260640161036b565b326000908152600460205260409020546001600160a01b0316156105ee5760405162461bcd60e51b815260206004820152603360248201527f6164647265737320697320616c7265616479206173736f6369617465642077696044820152723a341030b737ba3432b9103932b332b93932b960691b606482015260840161036b565b326001600160a01b038216141561063c5760405162461bcd60e51b815260206004820152601260248201527131b0b7103737ba103932b332b91039b2b63360711b604482015260640161036b565b6001600160a01b031660008181526003602090815260408083208054600181018255908452828420018054326001600160a01b03199182168117909255908452600490925290912080549091169091179055565b6000546001600160a01b031633146106ba5760405162461bcd60e51b815260040161036b90610c4d565b6000600155565b6000546001600160a01b031633146106eb5760405162461bcd60e51b815260040161036b90610c4d565b6001600160a01b038316600090815260036020526040902061070e908383610a55565b5060005b8181101561078957836004600085858581811061073157610731610cf4565b90506020020160208101906107469190610ae9565b6001600160a01b039081168252602082019290925260400160002080546001600160a01b031916929091169190911790558061078181610cc3565b915050610712565b50505050565b6000546001600160a01b031633146107b95760405162461bcd60e51b815260040161036b90610c4d565b6001600160a01b03811661080f5760405162461bcd60e51b815260206004820152601e60248201527f63616e206e6f742077686974656c697374207a65726f20616464726573730000604482015260640161036b565b6001600160a01b03811660009081526002602052604090205460ff16156108785760405162461bcd60e51b815260206004820152601b60248201527f6164647265737320616c72656164792077686974656c69737465640000000000604482015260640161036b565b6001600160a01b03166000908152600260205260409020805460ff19166001179055565b600360205281600052604060002081815481106108b857600080fd5b6000918252602090912001546001600160a01b03169150829050565b6000546001600160a01b031633146108fe5760405162461bcd60e51b815260040161036b90610c4d565b6001600160a01b0381166109635760405162461bcd60e51b815260206004820152602660248201527f4f776e61626c653a206e6577206f776e657220697320746865207a65726f206160448201526564647265737360d01b606482015260840161036b565b600080546040516001600160a01b03808516939216917f8be0079c531659141344cd1fd0a4f28419497f9722a3daafe3b4186f6b6457e091a3600080546001600160a01b0319166001600160a01b0392909216919091179055565b60006103e8600154836109d19190610ca4565b6109db9190610c82565b92915050565b6000546001600160a01b03163314610a0b5760405162461bcd60e51b815260040161036b90610c4d565b600080546040516001600160a01b03909116907f8be0079c531659141344cd1fd0a4f28419497f9722a3daafe3b4186f6b6457e0908390a3600080546001600160a01b0319169055565b828054828255906000526020600020908101928215610aa8579160200282015b82811115610aa85781546001600160a01b0319166001600160a01b03843516178255602090920191600190910190610a75565b50610ab4929150610ab8565b5090565b5b80821115610ab45760008155600101610ab9565b80356001600160a01b0381168114610ae457600080fd5b919050565b600060208284031215610afb57600080fd5b61033a82610acd565b60008060408385031215610b1757600080fd5b610b2083610acd565b9150610b2e60208401610acd565b90509250929050565b600080600060408486031215610b4c57600080fd5b610b5584610acd565b9250602084013567ffffffffffffffff80821115610b7257600080fd5b818601915086601f830112610b8657600080fd5b813581811115610b9557600080fd5b8760208260051b8501011115610baa57600080fd5b6020830194508093505050509250925092565b60008060408385031215610bd057600080fd5b610bd983610acd565b946020939093013593505050565b600060208284031215610bf957600080fd5b5035919050565b6020808252825182820181905260009190848201906040850190845b81811015610c415783516001600160a01b031683529284019291840191600101610c1c565b50909695505050505050565b6020808252818101527f4f776e61626c653a2063616c6c6572206973206e6f7420746865206f776e6572604082015260600190565b600082610c9f57634e487b7160e01b600052601260045260246000fd5b500490565b6000816000190483118215151615610cbe57610cbe610cde565b500290565b6000600019821415610cd757610cd7610cde565b5060010190565b634e487b7160e01b600052601160045260246000fd5b634e487b7160e01b600052603260045260246000fdfea2646970667358221220c080c3ec1a2c8b29d8e21488000b61252326cb3b9ae3cc32195934909533770464736f6c63430008070033",
  "immutableReferences": {},
  "source": "// SPDX-License-Identifier: Proprietary\n\nimport './Extras.sol';\n\n\npragma solidity ^0.8.7;\n\ncontract ReferralData is Ownable {\n\n    uint public referralFee = 10; // one-tenth of a percent; so 10 = 1%; 15 = 1.5%\n    uint constant public maxReferralFee = 25; // 2.5%\n\n    mapping (address => bool) internal _whitelistedContracts; // only these are allowed to add new referrals\n\n    mapping (address => address[]) public referralMasterToSlaves; // one referrer per all of their referred wallets; shows who is referred to them\n    mapping (address => address) public referralSlaveToMaster; // one referred wallet per their referrer; shows who referred them\n\n\n    constructor(address[] memory predictionsContracts) {\n        for (uint i; i < predictionsContracts.length; i++)\n            _whitelistedContracts[predictionsContracts[i]] = true;\n    }\n\n\n    modifier onlyContract() {\n        require(_isContract(msg.sender), 'only contracts can call this');\n        _;\n    }\n\n    function _isContract(address addr) internal view returns (bool) {\n        uint size;\n        assembly {\n            size := extcodesize(addr)\n        }\n        return size > 0;\n    }\n\n\n    function SetReferralFee(uint newFeeInTenthOfPercent) external onlyOwner {\n        require(newFeeInTenthOfPercent != 0, 'fee can not be 0; use DisableReferralFee() for this instead');\n        require(0 < newFeeInTenthOfPercent && newFeeInTenthOfPercent <= maxReferralFee, 'fee can not exceed maxReferralFee');\n        referralFee = newFeeInTenthOfPercent;\n    }\n\n    function DisableReferralFee() external onlyOwner {\n        referralFee = 0;\n    }\n\n    function WhitelistContract(address contractAddress) external onlyOwner {\n        require(contractAddress != address(0), 'can not whitelist zero address');\n        require(_whitelistedContracts[contractAddress] == false, 'address already whitelisted');\n        _whitelistedContracts[contractAddress] = true;\n    }\n\n    function IsWhitelisted(address contractAddress) external view returns (bool) {\n        return _whitelistedContracts[contractAddress];\n    }\n\n\n    function AreAlreadyConnected(address user1, address user2) public view returns (bool) {\n        // makes it impossible to form this kinda referral relationship: wallet1 -> wallet2 -> wallet1\n        // preventing wallet2 to refer those who already referred them\n        return (referralSlaveToMaster[user1] == user2 || referralSlaveToMaster[user2] == user1);\n    }\n\n    function IsAlreadyReferred(address user) public view returns (bool) {\n        return (referralSlaveToMaster[user] != address(0));\n    }\n\n    function GetReferrer(address referredUser) external view returns (address) {\n        return referralSlaveToMaster[referredUser];\n    }\n\n    function CalculateReferralReward(uint betSize) external view returns (uint) {\n        return betSize * referralFee / 1000;\n    }\n\n    function ReferTo(address referrer) public onlyContract {\n        require(_whitelistedContracts[msg.sender] == true, 'not authorized');\n        require(!IsAlreadyReferred(tx.origin), 'address is already associated with another referrer');\n        require(tx.origin != referrer, 'can not refer self');\n\n        referralMasterToSlaves[referrer].push(tx.origin);\n        referralSlaveToMaster[tx.origin] = referrer;\n    }\n\n    function GetReferrals(address user) external view returns(address[] memory) {\n        return referralMasterToSlaves[user];\n    }\n\n    // Designed for migration to a different referrals contract, in case such a need should arise\n    function SetReferrals(address user, address[] calldata walletsReferredByUser) external onlyOwner {\n        referralMasterToSlaves[user] = walletsReferredByUser;\n        for (uint i = 0; i < walletsReferredByUser.length; i++) {\n            referralSlaveToMaster[walletsReferredByUser[i]] = user;\n        }\n    }\n\n}",
  "sourcePath": "C:\\Dextop\\testing 3\\contracts\\ReferralData.sol",
  "compiler": {
    "name": "solc",
    "version": "0.8.7+commit.e28d00a7.Emscripten.clang"
  },
  "schemaVersion": "3.4.6",
  "updatedAt": "2022-03-18T17:51:50.631Z",
  "devdoc": {
    "kind": "dev",
    "methods": {},
    "version": 1
  },
  "userdoc": {
    "kind": "user",
    "methods": {},
    "version": 1
  }
}